:020000040800F2
:1000000000800120DD300008B12E0008B72E000866
:10001000BD2E0008C32E0008C92E000800000000F5
:10002000000000000000000000000000CF2E0008CB
:10003000DD2E000800000000EB2E0008F92E00085D
:100040002D3100082D3100082D3100082D31000818
:100050002D3100082D3100082D3100082D31000808
:100060002D3100082D3100082D3100082D310008F8
:100070002D3100082D3100082D3100082D310008E8
:100080002D3100082D3100082D3100082D310008D8
:100090002D3100082D3100082D3100082D310008C8
:1000A0002D3100082D3100082D3100082D310008B8
:1000B000052F00082D3100082D3100082D310008D2
:1000C0002D3100082D3100082D310008192F0008AE
:1000D0002D3100082D3100082D3100082D31000888
:1000E0002D3100082D3100082D3100082D31000878
:1000F0002D3100082D3100082D3100082D31000868
:100100002D3100082D3100082D3100082D31000857
:100110002D3100082D3100082D3100082D31000847
:100120002D3100082D3100082D3100082D31000837
:100130002D3100082D3100082D3100082D31000827
:100140002D3100082D3100082D3100082D31000817
:100150002D3100082D3100082D3100082D31000807
:100160002D3100082D3100082D3100082D310008F7
:100170002D3100082D3100082D310008000000004D
:080180002D3100082D310008AB
:1001900010B5054C237833B9044B13B10448AFF3C1
:1001A00000800123237010BDE80100200000000042
:1001B000C8A6000808B5034B1BB103490348AFF3B9
:1001C000008008BD00000000EC010020C8A6000867
:1001D00001F0FF01102A2BDB10F0070F08D010F8F8
:1001E000013B013A8B422DD010F0070F42B3F6D1FC
:1001F000F0B441EA012141EA014122F007047FF015
:1002000000070023F0E80256083C85EA010586EA6B
:10021000010685FA47F5A3FA87F586FA47F6A5FAA7
:1002200087F68EB9EED1F0BC01F0FF0102F00702B3
:1002300032B110F8013B013A83EA010313B1F8D15E
:100240000020704701387047002D06BF354603383F
:10025000073815F0010F07D1013015F4807F02BF78
:10026000013015F4C03F0130F0BC0138704700BFC9
:10027000034613F8012B002AFBD1181A01387047E6
:1002800081F0004102E000BF83F0004330B54FEA47
:1002900041044FEA430594EA050F08BF90EA020FB4
:1002A0001FBF54EA000C55EA020C7FEA645C7FEA47
:1002B000655C00F0E2804FEA5454D4EB5555B8BF6A
:1002C0006D420CDD2C4480EA020281EA030382EADB
:1002D000000083EA010180EA020281EA0303362D6D
:1002E00088BF30BD11F0004F4FEA01314FF4801C40
:1002F0004CEA113102D0404261EB410113F0004F52
:100300004FEA03334CEA133302D0524263EB430308
:1003100094EA050F00F0A780A4F10104D5F1200EA6
:100320000DDB02FA0EFC22FA05F2801841F1000101
:1003300003FA0EF2801843FA05F359410EE0A5F1D5
:1003400020050EF1200E012A03FA0EFC28BF4CF006
:10035000020C43FA05F3C01851EBE37101F00045BC
:1003600007D54FF0000EDCF1000C7EEB00006EEBC9
:100370000101B1F5801F1BD3B1F5001F0CD3490853
:100380005FEA30004FEA3C0C04F101044FEA4452AA
:1003900012F5800F80F09A80BCF1004F08BF5FEA31
:1003A000500C50F1000041EB045141EA050130BD11
:1003B0005FEA4C0C404141EB0101013C28BFB1F523
:1003C000801FE9D291F0000F04BF01460020B1FA6E
:1003D00081F308BF2033A3F10B03B3F120020CDA41
:1003E0000C3208DD02F1140CC2F10C0201FA0CF01F
:1003F00021FA02F10CE002F11402D8BFC2F1200C84
:1004000001FA02F120FA0CFCDCBF41EA0C01904039
:10041000E41AA2BF01EB0451294330BD6FEA040482
:100420001F3C1CDA0C340EDC04F11404C4F120026D
:1004300020FA04F001FA02F340EA030021FA04F37F
:1004400045EA030130BDC4F10C04C4F1200220FAD6
:1004500002F001FA04F340EA0300294630BD21FA14
:1004600004F0294630BD94F0000F83F4801306BFDA
:1004700081F480110134013D4EE77FEA645C18BFCE
:100480007FEA655C29D094EA050F08BF90EA020F65
:1004900005D054EA000C04BF1946104630BD91EA5D
:1004A000030F1EBF0021002030BD5FEA545C05D160
:1004B0004000494128BF41F0004130BD14F580049F
:1004C0003CBF01F5801130BD01F0004545F0FE4113
:1004D00041F470014FF0000030BD7FEA645C1ABF48
:1004E000194610467FEA655C1CBF0B46024650EA7F
:1004F000013406BF52EA033591EA030F41F40021AB
:1005000030BD00BF90F0000F04BF0021704730B530
:100510004FF4806404F132044FF000054FF0000105
:1005200050E700BF90F0000F04BF0021704730B5C6
:100530004FF4806404F1320410F0004548BF40429B
:100540004FF000013EE700BF42004FEAE2014FEAF0
:1005500031014FEA02701FBF12F07F4393F07F4FCB
:1005600081F06051704732F07F4208BF704793F0CE
:100570007F4F04BF41F40021704730B54FF46074E1
:1005800001F0004521F000411CE700BF50EA0102E4
:1005900008BF704730B54FF000050AE050EA01028D
:1005A00008BF704730B511F0004502D5404261EBFD
:1005B00041014FF4806404F132045FEA915C3FF43E
:1005C000D8AE4FF003025FEADC0C18BF03325FEADB
:1005D000DC0C18BF033202EBDC02C2F1200300FA8C
:1005E00003FC20FA02F001FA03FE40EA0E0021FAB1
:1005F00002F11444BDE600BF70B54FF0FF0C4CF49F
:10060000E06C1CEA11541DBF1CEA135594EA0C0F50
:1006100095EA0C0F00F0DEF82C4481EA030621EA8B
:100620004C5123EA4C5350EA013518BF52EA0335C6
:1006300041F4801143F4801338D0A0FB02CE4FF078
:100640000005E1FB02E506F00042E0FB03E54FF0A8
:100650000006E1FB03569CF0000F18BF4EF0010EA0
:10066000A4F1FF04B6F5007F64F5407404D25FEA9C
:100670004E0E6D4146EB060642EAC62141EA55514F
:100680004FEAC52040EA5E504FEACE2EB4F1FD0C91
:1006900088BFBCF5E06F1ED8BEF1004F08BF5FEA0F
:1006A000500E50F1000041EB045170BD06F00046C1
:1006B00046EA010140EA020081EA0301B4EB5C046E
:1006C000C2BFD4EB0C0541EA045170BD41F4801166
:1006D0004FF0000E013C00F3AB8014F1360FDEBF8B
:1006E000002001F0004170BDC4F10004203C35DA67
:1006F0000C341BDC04F11404C4F1200500FA05F3EA
:1007000020FA04F001FA05F240EA020001F000428A
:1007100021F0004110EBD37021FA04F642EB060100
:100720005EEA430E08BF20EAD37070BDC4F10C042A
:10073000C4F1200500FA04F320FA05F001FA04F2EE
:1007400040EA020001F0004110EBD37041F10001DA
:100750005EEA430E08BF20EAD37070BDC4F12005E5
:1007600000FA05F24EEA020E20FA04F301FA05F24D
:1007700043EA020321FA04F001F0004121FA04F2F5
:1007800020EA020000EBD3705EEA430E08BF20EAC5
:10079000D37070BD94F0000F0FD101F000464000FF
:1007A00041EB010111F4801F08BF013CF7D041EA81
:1007B000060195F0000F18BF704703F00046520085
:1007C00043EB030313F4801F08BF013DF7D043EA56
:1007D0000603704794EA0C0F0CEA135518BF95EA0C
:1007E0000C0F0CD050EA410618BF52EA4306D1D193
:1007F00081EA030101F000414FF0000070BD50EAB2
:10080000410606BF1046194652EA430619D094EA3B
:100810000C0F02D150EA013613D195EA0C0F05D125
:1008200052EA03361CBF104619460AD181EA030179
:1008300001F0004141F0FE4141F470014FF0000031
:1008400070BD41F0FE4141F4780170BD70B54FF0CC
:10085000FF0C4CF4E06C1CEA11541DBF1CEA13554C
:1008600094EA0C0F95EA0C0F00F0A7F8A4EB05042E
:1008700081EA030E52EA03354FEA013100F0888025
:100880004FEA03334FF0805545EA131343EA1263EE
:100890004FEA022245EA111545EA10654FEA0026A3
:1008A0000EF000419D4208BF964244F1FD0404F55C
:1008B000407402D25B084FEA3202B61A65EB0305B8
:1008C0005B084FEA32024FF480104FF4002CB6EB75
:1008D000020E75EB030E22BFB61A754640EA0C00F5
:1008E0005B084FEA3202B6EB020E75EB030E22BF35
:1008F000B61A754640EA5C005B084FEA3202B6EB76
:10090000020E75EB030E22BFB61A754640EA9C0034
:100910005B084FEA3202B6EB020E75EB030E22BF04
:10092000B61A754640EADC0055EA060E18D04FEAC2
:10093000051545EA16754FEA06164FEAC30343EA62
:1009400052734FEAC2025FEA1C1CC0D111F4801F2F
:100950000BD141EA00014FF000004FF0004CB6E728
:1009600011F4801F04BF01430020B4F1FD0C88BFC7
:10097000BCF5E06F3FF6AFAEB5EB030C04BFB6EBD2
:10098000020C5FEA500C50F1000041EB045170BDC5
:100990000EF0004E4EEA113114EB5C04C2BFD4EBF2
:1009A0000C0541EA045170BD41F480114FF0000E76
:1009B000013C90E645EA060E8DE60CEA135594EAF2
:1009C0000C0F08BF95EA0C0F3FF43BAF94EA0C0FF5
:1009D0000AD150EA01347FF434AF95EA0C0F7FF46A
:1009E00025AF104619462CE795EA0C0F06D152EABE
:1009F00003353FF4FDAE1046194622E750EA4106A2
:100A000018BF52EA43067FF4C5AE50EA41047FF4B2
:100A10000DAF52EA43057FF4EBAE12E74FF0FF3C17
:100A200006E000BF4FF0010C02E000BF4FF0010CE8
:100A30004DF804CD4FEA410C7FEA6C5C4FEA430C61
:100A400018BF7FEA6C5C1BD001B050EA410C0CBFB0
:100A500052EA430C91EA030F02BF90EA020F002012
:100A6000704710F1000F91EA030F58BF994208BF79
:100A700090422CBFD8176FEAE37040F00100704736
:100A80004FEA410C7FEA6C5C02D150EA013C07D18D
:100A90004FEA430C7FEA6C5CD6D152EA033CD3D0D8
:100AA0005DF8040B704700BF8446104662468C46D2
:100AB0001946634600E000BF01B5FFF7B7FF002805
:100AC00048BF10F1000F01BD4DF808EDFFF7F4FF2E
:100AD0000CBF012000205DF808FB00BF4DF808EDB9
:100AE000FFF7EAFF34BF012000205DF808FB00BFDC
:100AF0004DF808EDFFF7E0FF94BF012000205DF8FE
:100B000008FB00BF4DF808EDFFF7CEFF94BF0120B2
:100B100000205DF808FB00BF4DF808EDFFF7C4FFAB
:100B200034BF012000205DF808FB00BF4FEA410CF4
:100B30007FEA6C5C02D150EA013C0AD14FEA430CD7
:100B40007FEA6C5C02D152EA033C02D14FF0000014
:100B500070474FF0010070474FEA410212F5001252
:100B600015D211D56FF47873B3EB625212D94FEAF4
:100B7000C12343F0004343EA505311F0004F23FADE
:100B800002F018BF404270474FF00000704750EA33
:100B9000013005D111F0004008BF6FF000407047F0
:100BA0004FF00000704700BF4FEA4102B2F1E0434E
:100BB00024BFB3F5001CDCF1FE5C0DD901F0004C44
:100BC0004FEAC0024CEA5070B2F1004F40EB830094
:100BD00008BF20F00100704711F0804F21D113F1C0
:100BE0003872BCBF01F00040704741F480114FEAF9
:100BF0005252C2F11802C2F1200C10FA0CF320FA82
:100C000002F018BF40F001004FEAC1234FEAD3239E
:100C100003FA0CFC40EA0C0023FA02F34FEA430308
:100C2000CCE77FEA625307D150EA01331EBF4FF091
:100C3000FE4040F44000704701F0004040F0FE40AC
:100C400040F40000704700BF80B584B000AF78600A
:100C50000023BB73786800F0C8FA0346FB7397F96A
:100C60000F30002B50D17B681B7B012B0FD17B6891
:100C700001229A73274806F0EDFD07F10E017B680B
:100C80000122002000F0D5FA0346FB7302E07B68E6
:100C900000229A7397F90F30002B35D11E4806F0C9
:100CA000D9FD07F10E017B680122002000F0C1FA96
:100CB0000346FB7397F90F30002B25D1174806F038
:100CC000C9FDBB7B1946164806F0C4FD7B685B7BFB
:100CD000002B09D1BB7B1E2B06D1124806F0BAFDB2
:100CE000BA7B7B681A700FE07B685B7B012B09D1B4
:100CF000BB7B1E2B06D10C4806F0ACFDBA7B7B6893
:100D00001A7001E0FD23FB7397F90F301846103776
:100D1000BD4680BDE0A60008F0A6000804A70008B4
:100D20000CA700081CA7000824A7000880B586B0FF
:100D300000AFB9607A603B600346FB73386800F02F
:100D400054FA0346FB7597F91730002B11D1BB6895
:100D5000002B0ED07B68002B08D0F87B3B687A68AC
:100D6000B96800F066FA0346FB7504E0F923FB75E9
:100D700001E0FF23FB7597F9173018461837BD4679
:100D800080BD80B586B000AFB9607A603B60034635
:100D9000FB73386800F029FA0346FB7597F91730A2
:100DA000002B2CD1BB68002B29D07B68002B23D0D3
:100DB000F87B3B687A68B96800F08BFA0346FB75EC
:100DC0003B68DB7B032B08D13B689B6A3A6852681F
:100DD00011464FF4E170984713E03B68DB7B002B32
:100DE00007D13B689B6A3A685268114602209847CF
:100DF00007E0FB23FB7504E0F923FB7501E0FF230B
:100E0000FB7597F9173018461837BD4680BD80B579
:100E100084B000AF7860786800F0E7F90346FB73B0
:100E200097F90F30002B23D1B623BB7307F10E01C6
:100E30007B6801227E2000F04CFA0346FB7397F991
:100E40000F30002B14D17B689B6A7A685268114678
:100E50004FF47A7098477B681B7B012B08D107F110
:100E60000E017B6801220020FFF760FF0346FB7341
:100E700097F90F3018461037BD4680BD80B586B053
:100E800000AF78600023BB810023BB7500237B7516
:100E900000233B75786800F0A8F90346FB7597F9C5
:100EA0001730002B71D17B689B7CFB747B685B7C6B
:100EB000BB747B681B7C7B74FB7C042B02D9FB7CA2
:100EC0000C2B01D90123BB75BB7C0A2B01D9012353
:100ED0007B757B685B7B002B04D17B7C032B01D96A
:100EE00001233B757B685B7B012B04D17B7C032B4F
:100EF00001D901233B75BB7D002B44D17B7D002BA9
:100F000041D13B7D002B3ED107F10C017B680222D1
:100F10004020FFF70BFF0346FB7597F91730002BB6
:100F200033D13B7B5BB223F00F035AB297F91330F6
:100F300003F00F035BB213435BB2DBB23B733B7B4B
:100F40005BB203F00F035AB2BB7C1B015BB21343CD
:100F50005BB2DBB23B737B7B5BB223F003035AB221
:100F600097F9113003F003035BB213435BB2DBB2BA
:100F70007B7307F10C017B680222402000F0A9F985
:100F80000346FB7501E0F823FB7597F91730184607
:100F90001837BD4680BD80B584B000AF78600023AF
:100FA000BB81786800F021F90346FB7397F90F3095
:100FB000002B43D17B68DB7BBB73BB7B002B04D155
:100FC00000233B7304237B7309E0BB7B032B04D119
:100FD00003233B7300237B7301E0FB23FB7397F92F
:100FE0000F30002B2AD107F10C017B6801227C20F5
:100FF00000F06FF90346FB7397F90F30002B1DD1FA
:101000007B689B6A7A685268114641F2883098473B
:1010100007F10C03591C7B6801227D2000F059F96F
:101020000346FB7397F90F30002B07D17B689B6A4F
:101030007A685268114641F28830984797F90F3024
:1010400018461037BD4680BD80B586B000AF7860C9
:1010500039600023FB6000233B82386800F0C5F84C
:101060000346FB7597F91730002B40D17B68002BA6
:101070003DD007F10C013B6806221220FFF756FE17
:101080000346FB7597F91730002B32D13B7BBB75BC
:101090007B7B7B757B7D1B021AB2BB7D1BB213432E
:1010A0001BB27B82B7F912207B681A80BB7BBB75B1
:1010B000FB7B7B757B7D1B021AB2BB7D1BB213438E
:1010C0001BB27B82B7F912207B685A803B7CBB75D0
:1010D0007B7C7B757B7D1B021AB2BB7D1BB21343ED
:1010E0001BB27B82B7F912207B689A8001E0FF2354
:1010F000FB7597F9173018461837BD4680BD0000BC
:1011000080B584B000AF78603960386800F06DF861
:101110000346FB7397F90F30002B3AD17B68002B05
:1011200037D07B685B78042B2FD801A252F823F0CC
:101130004511000853110008611100086F110008E3
:101140007D1100083968786800F07EF90346FB736A
:101150001EE03968786800F0D5F90346FB7317E0A4
:101160003968786800F013FA0346FB7310E03968B9
:10117000786800F026FA0346FB7309E0396878685E
:1011800000F07DFA0346FB7302E0F823FB7300BF17
:1011900001E0FF23FB7397F90F3018461037BD4667
:1011A00080BD00BF80B584B000AF78603960002397
:1011B000BB737B68002B10D007F10E013B68012246
:1011C0001D20FFF7B3FD0346FB7397F90F30002B8B
:1011D00005D1BA7B7B681A7001E0FF23FB7397F996
:1011E0000F3018461037BD4680BD80B485B000AFC3
:1011F00078607B68002B0FD07B681B6A002B0BD0BC
:101200007B685B6A002B07D07B689B6A002B03D04E
:101210007B685B68002B02D1FF23FB7301E0002396
:10122000FB7397F90F3018461437BD465DF8047B01
:10123000704790B5A7B000AFB9607A603B600346D5
:10124000FB73002387F897303B681B7B012B03D18E
:10125000FB7B63F07F03FB733B681C6A3B689B7BF3
:101260001A467B681A443B685B6807F11401F87BF7
:10127000A04703461A463B6883F82C203B6893F945
:101280002C30002B1CD10023A7F8943012E0B7F8C3
:1012900094303A68927B1A44B7F89430B9680B449A
:1012A00098323A4412F8842C1A70B7F8943001330B
:1012B000A7F89430B7F894307A689A42E7D802E0F9
:1012C000FE2387F8973097F9973018469C37BD462C
:1012D00090BD90B587B000AFB9607A603B600346BF
:1012E000FB730023FB753B681B7B012B03D1FB7B4E
:1012F00003F07F03FB733B685C6A3B685B68F87BC9
:101300007A68B968A04703461A463B6883F82C20E0
:101310003B6893F92C30002B01D0FE23FB7597F925
:10132000173018461C37BD4690BD80B584B000AF5D
:10133000786039600023BB7300237B737B681B7864
:10134000002B02D0012B03D005E05323BB7305E033
:101350005423BB7302E001237B7300BF7B7B002B14
:101360006AD107F10C01B87B3B680122FFF761FFEE
:101370000346FB7397F90F30002B5FD13B7B5BB2C9
:1013800023F002035AB27B689B785B005BB203F0E8
:1013900002035BB213435BB2DBB23B733B7B5BB2DA
:1013A00023F004035AB27B68DB789B005BB203F046
:1013B00004035BB213435BB2DBB23B737B685B78C5
:1013C000022B1AD13B7B43F00103DBB23B733B7B27
:1013D0005BB223F010035AB27B681B791B015BB22E
:1013E00003F010035BB213435BB2DBB23B733B7B96
:1013F00023F00803DBB23B7314E03B7B5BB223F0CA
:1014000008035AB27B681B79DB005BB203F0080368
:101410005BB213435BB2DBB23B733B7B23F0100345
:10142000DBB23B7307F10C01B87B3B680122FFF78D
:10143000A8FC0346FB7301E0FB23FB7397F90F3015
:1014400018461037BD4680BD80B584B000AF7860C7
:10145000396000237B7307F10D013B68012258209E
:10146000FFF7E7FE0346FB7397F90F30002B43D1DC
:101470007B681B79BB737B681B78002B02D0012B28
:1014800010D01FE07B7B5BB223F004035AB2BB7B1E
:101490009B005BB203F004035BB213435BB2DBB2AD
:1014A0007B7312E07B7B5BB223F040035AB2BB7BC1
:1014B0009B015BB203F040035BB213435BB2DBB250
:1014C0007B7302E0FB23FB7300BF97F90F30002B07
:1014D00012D139687868FFF728FF0346FB7397F944
:1014E0000F30002B08D107F10D013B680122582075
:1014F000FFF747FC0346FB7397F90F301846103788
:10150000BD4680BD80B584B000AF786039600023EF
:10151000BB733868FFF769FE0346FB7397F90F301A
:10152000002B2ED100237B737B681B78002B02D00D
:10153000012B03D005E05623BB7305E05723BB7393
:1015400002E0FB23FB7300BF97F90F30002B18D18B
:101550007B681B79012B01D101237B7307F10D01FE
:10156000B87B3B680122FFF70CFC0346FB7397F93D
:101570000F30002B05D139687868FFF7D6FE034697
:10158000FB7397F90F3018461037BD4680BD80B504
:1015900084B000AF786039603868FFF726FE0346F4
:1015A000FB7397F90F30002B05D139687868FFF786
:1015B000BCFE0346FB7397F90F3018461037BD4643
:1015C00080BD80B584B000AF7860396000237B7344
:1015D00007F10D013B6801225820FFF72AFE034660
:1015E000FB7397F90F30002B43D17B681B79BB73DA
:1015F0007B681B78002B02D0012B10D01FE07B7B77
:101600005BB223F002035AB2BB7B5B005BB203F018
:1016100002035BB213435BB2DBB27B7312E07B7BF2
:101620005BB223F020035AB2BB7B5B015BB203F0D9
:1016300020035BB213435BB2DBB27B7302E0FB239C
:10164000FB7300BF97F90F30002B12D1396878680F
:10165000FFF76BFE0346FB7397F90F30002B08D1A1
:1016600007F10D013B6801225820FFF78AFB034672
:10167000FB7397F90F3018461037BD4680BD80B513
:1016800084B000AF7860396000237B7307F10D01EF
:101690003B6801225820FFF7CCFD0346FB7397F906
:1016A0000F30002B42D17B681B79BB737B681B78A2
:1016B000002B02D0012B0FD01EE07B7B5BB223F00E
:1016C00001035AB297F90E3003F001035BB21343E2
:1016D0005BB2DBB27B7312E07B7B5BB223F0100367
:1016E0005AB2BB7B1B015BB203F010035BB2134326
:1016F0005BB2DBB27B7302E0FB23FB7300BF97F9A5
:101700000F30002B12D139687868FFF70EFE0346C0
:10171000FB7397F90F30002B08D107F10D013B68DF
:1017200001225820FFF72DFB0346FB7397F90F307A
:1017300018461037BD4680BD80B584B000AF7860D4
:101740000023BB73786800F01FFA0346FB7397F918
:101750000F30002B1AD107F10E017B680122002007
:1017600000F036FA0346FB73BB7B19460A4806F0C5
:1017700071F897F90F30002B08D1BB7B0F2B03D1E9
:10178000BA7B7B685A7001E0FD23FB7397F90F3039
:1017900018461037BD4680BD30A7000880B586B01A
:1017A00000AFB9607A603B600346FB73386800F0B5
:1017B000EBF90346FB7597F91730002B11D1BB6885
:1017C000002B0ED07B68002B08D0F87B3B687A6832
:1017D000B96800F0FDF90346FB7504E0F923FB75D9
:1017E00001E0FF23FB7597F9173018461837BD46FF
:1017F00080BD80B586B000AFB9607A603B600346BB
:10180000FB73386800F0C0F90346FB7597F9173091
:10181000002B30D1BB68002B2DD07B68002B27D04C
:10182000F87B3B687A68B96800F0FEF90346FB75FF
:101830003B68DB7C802B03D03B68DB7C202B08D112
:101840003B689B6A3A68926811464FF4E17098478A
:1018500013E03B68DB7C002B07D13B689B6A3A684E
:10186000926811460220984707E0FB23FB7504E0CD
:10187000F923FB7501E0FF23FB7597F91730184634
:101880001837BD4680BD80B584B000AF78600023B6
:10189000BB7300237B73786800F076F90346FB7313
:1018A00097F90F30002B66D17B689B7D3B737B687B
:1018B0001B7DFB723B7B072B01D901237B73FB7ADA
:1018C000042B01D90123BB737B7B002B4FD1BB7B46
:1018D000002B4CD107F10A017B6801221020FFF791
:1018E0005DFF0346FB7397F90F30002B42D1BB7AA3
:1018F0005BB223F00F035AB297F90C3003F00F03D9
:101900005BB213435BB2DBB2BB7207F10A017B68C7
:1019100001221020FFF76DFF0346FB7397F90F308C
:10192000002B27D107F10A017B6801220F20FFF766
:1019300035FF0346FB7397F90F30002B1AD1BB7AA2
:101940005BB223F007035AB297F90B3003F0070399
:101950005BB213435BB2DBB2BB7207F10A017B6877
:1019600001220F20FFF745FF0346FB7302E0F82337
:10197000FB7300E000BF97F90F3018461037BD46E3
:1019800080BD80B584B000AF78600123BB737868F8
:1019900000F0FAF80346FB7397F90F30002B3AD1A9
:1019A00007F10C017B6801221120FFF7F7FE0346C7
:1019B000FB7397F90F30002B2DD17B68DB7C7B7399
:1019C0007B7B802B04D13B7B202B01D10023BB737D
:1019D0007B7B202B04D13B7B802B01D10023BB736D
:1019E000BB7B002B15D007F10D017B680122112074
:1019F000FFF7FFFE0346FB7397F90F30002B0AD168
:101A00007B689B6A7A689268114647F23050984723
:101A100001E0FB23FB7397F90F3018461037BD46E2
:101A200080BD80B586B000AF78603960C823FB60A8
:101A300000233B82386800F0A7F80346FB7597F94E
:101A40001730002B40D17B68002B3DD007F10C01F3
:101A50003B6806220220FFF7A1FE0346FB7597F9BB
:101A60001730002B32D13B7BBB757B7B7B757B7D3D
:101A70001B021AB2BB7D1BB213431BB27B82B7F9A8
:101A800012207B681A80BB7BBB75FB7B7B757B7DE3
:101A90001B021AB2BB7D1BB213431BB27B82B7F988
:101AA00012207B685A803B7CBB757B7C7B757B7D81
:101AB0001B021AB2BB7D1BB213431BB27B82B7F968
:101AC00012207B689A8001E0FF23FB7597F917309D
:101AD00018461837BD4680BD80B584B000AF786029
:101AE0003960386800F050F80346FB7397F90F30FF
:101AF000002B1ED17B68002B1BD07B685B78002BF2
:101B000005D0002B11DB013B012B0ED806E0396814
:101B1000786800F0E1F80346FB7309E039687868FB
:101B200000F04CF90346FB7302E0F823FB7300BF9F
:101B300001E0FF23FB7397F90F3018461037BD46BD
:101B400080BD80B584B000AF786039600023BB737E
:101B50007B68002B10D007F10E013B6801220A20A0
:101B6000FFF71CFE0346FB7397F90F30002B05D1DE
:101B7000BA7B7B681A7001E0FF23FB7397F90F3083
:101B800018461037BD4680BD80B485B000AF786080
:101B90007B68002B0FD07B681B6A002B0BD07B6807
:101BA0005B6A002B07D07B689B6A002B03D07B68A5
:101BB0009B68002B02D1FF23FB7301E00023FB7322
:101BC00097F90F3018461437BD465DF8047B70470F
:101BD00090B587B000AFB9607A603B600346FB7395
:101BE0000023FB753B681B7B012B03D1FB7B63F060
:101BF0007F03FB733B681C6A3B689B68F87B7A68D1
:101C0000B968A04703461A463B6883F82C203B6816
:101C100093F92C30002B01D0FE23FB7597F9173078
:101C200018461C37BD4690BD90B587B000AFB9606F
:101C30007A603B600346FB730023FB750023BB7592
:101C40003B681B7B012B03D1FB7B03F07F03FB7302
:101C50007B68012B13D13B685C6A3B689B68F87B0F
:101C60007A68B968A04703461A463B6883F82C2077
:101C70003B6893F92C30002B01D0FE23FB757B6869
:101C8000012B23D90023BB751CE03B685C6ABB7D3C
:101C9000BA68D1183B689B68F87B0122A0470346CD
:101CA0001A463B6883F82C20FB7B0133FB733B68AF
:101CB00093F92C30002B02D0FE23FB7506E0BB7D90
:101CC0000133BB75BB7D7A689A42DED897F917302D
:101CD00018461C37BD4690BD80B584B000AF786013
:101CE00039600023BB8107F10C013B6801221820F9
:101CF000FFF76EFF0346FB7397F90F30002B57D1A8
:101D00007B681B79BB737B681B78002B02D0012B8F
:101D10000FD01BE03B7B5BB223F001035AB297F973
:101D20000E3003F001035BB213435BB2DBB23B73D3
:101D30000FE03B7B5BB203F07F035AB2BB7BDB015E
:101D40005BB213435BB2DBB23B7302E0FB23FB737A
:101D500000BF97F90F30002B2AD13B7B03F08103A2
:101D6000002B02D080237B7301E000237B7307F1FB
:101D70000C013B6801221820FFF73BFD0346FB7373
:101D800097F90F30002B13D13968786800F08CF880
:101D90000346FB7397F90F30002B09D107F10C03B1
:101DA000591C3B6801221520FFF723FD0346FB73F6
:101DB00097F90F3018461037BD4680BD80B584B006
:101DC00000AF786039600023BB8107F10C013B68EC
:101DD00001221820FFF7FCFE0346FB7397F90F3032
:101DE000002B5BD17B681B79BB737B681B78002B56
:101DF00002D0012B10D01FE03B7B5BB223F0040329
:101E00005AB2BB7B9B005BB203F004035BB213438B
:101E10005BB2DBB23B7312E03B7B5BB223F020038F
:101E20005AB2BB7B5B015BB203F020035BB213438E
:101E30005BB2DBB23B7302E0FB23FB7300BF97F99D
:101E40000F30002B2AD13B7B03F02403002B02D060
:101E500040237B7301E000237B7307F10C013B6897
:101E600001221820FFF7C5FC0346FB7397F90F30DA
:101E7000002B13D13968786800F016F80346FB731D
:101E800097F90F30002B09D107F10C03591C3B685F
:101E900001221520FFF7ADFC0346FB7397F90F30C5
:101EA00018461037BD4680BD80B584B000AF78605D
:101EB000396007F10E013B6801221620FFF788FE0A
:101EC0000346FB7397F90F30002B50D17B681B78CA
:101ED000002B02D0012B20D040E0BB7B5BB223F073
:101EE00001035AB27B689B785BB203F001035BB2DB
:101EF00013435BB2DBB2BB73BB7B5BB223F0020369
:101F00005AB27B68DB785B005BB203F002035BB222
:101F100013435BB2DBB2BB7320E0BB7B5BB223F04D
:101F200004035AB27B689B789B005BB203F0040306
:101F30005BB213435BB2DBB2BB73BB7B5BB223F020
:101F400008035AB27B68DB78DB005BB203F008035E
:101F50005BB213435BB2DBB2BB7300BF07F10E0190
:101F60003B6801221620FFF744FC0346FB7397F9F8
:101F70000F3018461037BD4680BD000080B582B0D6
:101F800000AF7860391D4FF0FF330122034804F0A1
:101F9000BBFC00BF18460837BD4680BDB402002018
:101FA00080B582B000AF3D48FEF74EFE0346FB71A0
:101FB00097F9073019463A4800F098FD394805F07E
:101FC00049FC3648FFF7B8FB0346FB7197F9073029
:101FD0001946354800F08AFD344805F03BFC0021E5
:101FE00041F2883000F00AFD97F90730002B4FD1FD
:101FF0002A4B0C229A74294B5B7B002B03D1274B75
:1020000003221A7406E0254B5B7B012B02D1234B84
:1020100003221A74214B0022DA73204B0A225A74CD
:102020001E48FEF7B8FF0346FB7197F907301946C3
:102030001F4800F05BFD1948FEF720FF0346FB71C7
:1020400097F9073019461B4800F050FD134B012249
:102050009A75124B03221A75104B01225A750F4BB9
:102060000022DA740D48FFF78CFC0346FB7197F9E8
:1020700007301946104800F039FD0848FFF703FC07
:102080000346FB7197F9073019460C4800F02EFD06
:1020900097F9073018460837BD4680BD0403002075
:1020A00040A700084CA700085CA7000868A7000824
:1020B00074A700088CA70008A4A70008BCA7000804
:1020C00080B582B000AF0023BB71274B00221A708D
:1020D000254B00225A70244B0022DA70224B012239
:1020E0009A70214B01221A7120491F48FFF708F806
:1020F0000346FB7197F9073019461D4800F0F6FCBE
:1021000097F90730002B28D11A4B00221A70194B6F
:1021100000225A70174B0022DA70164B01229A7077
:10212000144B01221A7111491248FFF7D5FC0346DE
:10213000FB7197F9073019460F4800F0D7FCB91D1D
:102140000A4B01221820FFF729FB0346FB7197F980
:1021500007301946094800F0C9FC97F907301846BE
:102160000837BD4680BD00BF3403002004030020B3
:1021700024A900083C0300203CA9000854A9000839
:102180002DE9F04F8FB008AF00F0D1FF00F0A4F9B7
:1021900000F0B4FA00F08EFA00F000FA00F03CFA19
:1021A0004FF000037B614FF000033B614FF00003F1
:1021B000FB600023BB6000233B60B04803F01AFFC4
:1021C000AF4805F047FB01220121AE4800F034FC86
:1021D0000346FB7197F907301946AB4800F086FCBF
:1021E000A848FEF714FEFFF7DBFE0346FB7197F9E4
:1021F00007301946A54800F079FCFFF761FF034658
:10220000FB7197F907301946A14800F06FFCA1480F
:1022100005F020FBA04805F01DFB97F90730002BC7
:1022200040F02581974BDB7B002B40F0A0809B4842
:1022300005F010FB9A4805F00DFB9A4805F00AFBE3
:10224000994805F007FB3B468E491846FEF7AAFF62
:102250000346FB7197F907301946944800F046FC95
:102260003B6803F08003002B7BD086499048FEF743
:10227000EBFE0346FB7197F9073019468D4800F0D5
:1022800035FC804B5B7B002B1ED1894BB3F90030B2
:1022900010220421184600F0AFFA87ED050A844B9E
:1022A000B3F9023010220421184600F0A5FA87ED98
:1022B000040A7F4BB3F9043010220421184600F0C1
:1022C0009BFA87ED030A21E06E4B5B7B012B1DD14E
:1022D000774BB3F9003010221821184600F08CFA21
:1022E00087ED050A724BB3F9023010221821184607
:1022F00000F082FA87ED040A6D4BB3F90430102226
:102300001821184600F078FA87ED030A684BB3F9F4
:1023100000309A46664BB3F902309B46644BB3F9E2
:1023200004301E467869FEF70FF904460D463869F9
:10233000FEF70AF980468946F868FEF705F9024675
:102340000B46CDE90623CDE90489CDE90245009687
:102350005B465246B968584805F07CFABB680133C1
:10236000BB6000214FF47A7000F048FB6BE7454BEF
:10237000DB7C002B7BD10023BB60504805F0D0FAFA
:102380004F4805F067FA444805F064FA4D4805F0F7
:1023900061FA69E03B463B491846FFF7D2FB03462A
:1023A000FB7197F907301946474800F09FFB3B68DF
:1023B00003F08003002B57D032494448FFF731FB2C
:1023C0000346FB7197F907301946414800F08EFB30
:1023D0003E4BB3F9003010219FED3E0A184600F045
:1023E00055FA87ED050A394BB3F9023010219FEDFC
:1023F000390A184600F04AFA87ED040A334BB3F95C
:10240000043010219FED330A184600F03FFA87EDA3
:10241000030A2E4BB3F900309A462C4BB3F9023025
:102420009B462A4BB3F904301E467869FEF78CF8B8
:1024300004460D463869FEF787F880468946F868F5
:10244000FEF782F802460B46CDE90623CDE9048962
:10245000CDE9024500965B465246B968164805F03C
:10246000F9F9BB680133BB60BB68092B92DD00231F
:1024700018461C37BD46BDE8F08F00BF680200203B
:1024800084A90008040300208CA90008A4A900085E
:10249000BCA90008D4A900080CAA000840AA00089A
:1024A00050AA000884AA0008BCAA000810AB0008C3
:1024B000440300202CAB00083CAB000868AB0008CC
:1024C00074AB0008A4AB0008F8AB00084C03002074
:1024D00014AC000800007A4380B596B000AF07F155
:1024E000140344220021184605F0FAFA3B46002264
:1024F0001A605A609A60DA601A614FF4007001F055
:10250000BDF90346002B01D000F098FB01F098F9CB
:10251000214BD3F89030204A23F01803C2F89030B2
:1025200014237B610123FB610123FB6200233B63D6
:1025300060237B630223FB6301233B6401237B64F1
:102540001023BB6402233B6502237B6507F1140360
:10255000184601F0E9F90346002B01D000F06EFBAC
:102560000F233B6003237B600023BB604FF4C063F9
:10257000FB6000233B613B460121184601F0B0FDA2
:102580000346002B01D000F059FB02F0B7FA00BF60
:102590005837BD4680BD00BF0010024080B500AF77
:1025A0001B4B1C4A1A601A4B4FF482725A60184B2C
:1025B00000229A60164B4FF4E062DA60144B00225E
:1025C0001A61134B00225A61114B4FF400729A6149
:1025D0000F4B0822DA610E4B00221A620C4B0022CC
:1025E0005A620B4B00229A62094B0722DA62084BAF
:1025F00000221A63064B08225A63054802F060FC69
:102600000346002B01D000F019FB00BF80BD00BFC6
:10261000040200200030014080B588B000AF07F10F
:10262000100300221A605A609A60DA603B1D002293
:102630001A605A609A601E4B4FF080421A601C4B21
:1026400007225A601A4B00229A60194B6FF0010260
:10265000DA60174B00221A61154B00229A61144868
:1026600003F070FC0346002B01D000F0E7FA4FF4B2
:1026700080533B6107F1100319460D4803F024FE17
:102680000346002B01D000F0D9FA00237B60002321
:10269000FB603B1D1946064804F046F80346002B34
:1026A00001D000F0CBFA00BF2037BD4680BD00BF8F
:1026B0006802002080B500AF0E4B0F4A1A600D4B28
:1026C0004FF4E1325A600B4B00229A60094B002212
:1026D000DA60084B00221A61064B0C225A61054849
:1026E00004F0C8F80346002B01D000F0A7FA00BFA1
:1026F00080BD00BFB40200200044004080B58AB015
:1027000000AF07F1140300221A605A609A60DA6081
:102710001A61364BDB6C354A43F00403D364334B08
:10272000DB6C03F004033B613B69304BDB6C2F4AED
:1027300043F08003D3642D4BDB6C03F08003FB601C
:10274000FB682A4BDB6C294A43F00103D364274B17
:10275000DB6C03F00103BB60BB68244BDB6C234ADA
:1027600043F00203D364214BDB6C03F002037B6074
:102770007B6800224FF400511D4801F049F8012206
:102780004FF440711B4801F043F84FF400537B6154
:102790004FF40413BB610023FB6107F114031946D6
:1027A000144800F08BFE4FF400537B610123BB61A2
:1027B0000023FB6100233B6207F1140319460C4818
:1027C00000F07CFE4FF440737B610123BB6100236A
:1027D000FB6100233B6207F114031946054800F032
:1027E0006DFE00BF2837BD4680BD00BF001002400F
:1027F000000400480008004880B586B000AF0346DA
:10280000FB800B467B7113463B714FF000024FF08B
:102810008043C7E904233B791846FDF773FE02465F
:102820000B4643EC112B97ED040B07F015F851EC18
:10283000100B4FF000024FF08043FEF707F80246FE
:102840000B4610461946FEF7AFF90346FB60B7F991
:10285000063007EE903AF8EEE77A9FED0B7A27EE16
:10286000877A97F9053007EE903AF8EEE77A27EE87
:10287000277AD7ED037AC7EE276AF0EE667AB0EED4
:10288000670A1837BD4680BD0AE81C4180B586B08E
:1028900000AF034687ED000A0A46FB8013467B71B2
:1028A0004FF000024FF08043C7E904237B791846BC
:1028B000FDF728FE02460B4643EC112B97ED040B67
:1028C00006F0CAFF51EC100B4FF000024FF08043AE
:1028D000FDF7BCFF02460B4610461946FEF764F9A9
:1028E0000346FB60D7ED006AD7ED037A86EEA77A40
:1028F000B7F9063007EE903AF8EEE77A67EE277AF6
:10290000B0EE670A1837BD4680BD000080B586B0BE
:1029100000AFB9607A603B600346FB733B681B887D
:10292000FB82FB8A00221946144800F071FF07F170
:102930000F0132230122124802F065FB0346002BEF
:1029400001D0012316E07B689AB23223B9680C48A3
:1029500002F0CEFC0346002B01D001230AE0FB8AE3
:1029600001221946054800F053FF0021642000F0C1
:1029700045F8002318461837BD4680BD00080048BA
:102980000402002080B586B000AFB9607A603B6079
:102990000346FB733B681B88FB82FB8A00221946B7
:1029A000144800F035FF07F10F01322301221248CD
:1029B00002F029FB0346002B01D0012315E005237B
:1029C0000122B9680C4802F01EFB0346002B01D01F
:1029D00001230AE0FB8A01221946064800F018FF8D
:1029E0000021642000F00AF8002318461837BD467D
:1029F00080BD00BF000800480402002080B483B0FE
:102A000000AF786039600B4B1B6800225A6200BF30
:102A1000084B1B68596A7A6813469B0013445B0095
:102A20009942F5D300BF00BF0C37BD465DF8047B6B
:102A3000704700BF6802002080B584B000AF7860A6
:102A40000B46FB701346BB700023FB737B68002BA7
:102A50003AD000214FF47A70FFF7D0FFFB78002BBB
:102A600018D0FB78012B15D17B6801221A737B6883
:102A7000194A1A627B68194A5A62194B4FF400725C
:102A80001A80184B4FF480721A8000214FF47A702C
:102A9000FFF7B4FF7B68BA785A737B68104A5A60B4
:102AA0007B68104A9A607B680F4A9A627B682E2284
:102AB0001A7700214FF47A70FFF7A0FF00214FF43E
:102AC0007A70FFF79BFF01E0FF23FB7397F90F304C
:102AD00018461037BD4680BD0D290008852900081D
:102AE0005203002054030020FD29000880B582B065
:102AF00000AF78600B46FB7097F90330002B00F0B5
:102B000081807968414804F0A5FE97F90330B3F15C
:102B1000FF3F06D197F9033019463D4804F09AFE6D
:102B200070E097F9033013F1020F06D197F90330E3
:102B30001946384804F08EFE64E097F9033013F12B
:102B4000030F06D197F903301946334804F082FE8B
:102B500058E097F9033013F1040F06D197F90330C9
:102B600019462E4804F076FE4CE097F9033013F135
:102B7000050F06D197F903301946294804F06AFE7B
:102B800040E097F9033013F1060F06D197F90330AF
:102B90001946244804F05EFE34E097F9033013F13F
:102BA000070F06D197F9033019461F4804F052FE6B
:102BB00028E097F9033013F1080F06D197F9033095
:102BC00019461A4804F046FE1CE097F9033013F149
:102BD000090F06D197F903301946154804F03AFE5B
:102BE00010E097F90330012B06D197F9033019460D
:102BF000104804F02FFE05E097F9033019460E48FF
:102C000004F028FE00BF0837BD4680BD24AC000894
:102C100028AC000844AC00086CAC00088CAC000880
:102C2000A8AC0008C8AC0008ECAC000818AD00085F
:102C300038AD000860AD00087CAD000880B400AF7E
:102C400072B600BFFEE7000080B483B000AF0F4B48
:102C50001B6E0E4A43F0010313660C4B1B6E03F010
:102C600001037B607B68094B9B6D084A43F08053EE
:102C70009365064B9B6D03F080533B603B6800BF40
:102C80000C37BD465DF8047B704700BF0010024062
:102C900080B58AB000AF786007F1140300221A6093
:102CA0005A609A60DA601A617B681B681B4A93421B
:102CB00030D11B4B1B6E1A4A43F480531366184BDA
:102CC0001B6E03F480533B613B69154BDB6C144A6C
:102CD00043F00103D364124BDB6C03F00103FB6090
:102CE000FB68E0237B610223BB610023FB610323BC
:102CF0003B6205237B6207F1140319464FF09040B5
:102D000000F0DCFB00220021232000F060FB2320E8
:102D100000F079FB00BF2837BD4680BD0030014080
:102D20000010024080B584B000AF78607B681B68FB
:102D3000B3F1804F13D10C4B9B6D0B4A43F0010351
:102D40009365094B9B6D03F00103FB60FB68002258
:102D500000211C2000F03BFB1C2000F054FB00BFB6
:102D60001037BD4680BD00BF0010024080B5AEB038
:102D700000AF786007F1A40300221A605A609A60DD
:102D8000DA601A6107F11C0388220021184604F05A
:102D9000A7FE7B681B68434A93423DD10123FB6138
:102DA00000237B6507F11C03184601F0BDFB0346B9
:102DB000002B01D0FFF742FF3B4B1B6E3A4A43F416
:102DC00080431366384B1B6E03F48043BB61BB69C1
:102DD000354BDB6C344A43F00103D364324BDB6C7C
:102DE00003F001037B617B694FF4E063C7F8A43013
:102DF0000223C7F8A8300023C7F8AC300323C7F874
:102E0000B0300723C7F8B43007F1A40319464FF0D8
:102E1000904000F053FB40E07B681B68234A9342DC
:102E20003BD10223FB610023BB6507F11C0318465D
:102E300001F07AFB0346002B01D0FFF7FFFE1A4B8F
:102E40009B6D194A43F400339365174B9B6D03F454
:102E500000333B613B69144BDB6C134A43F00103C5
:102E6000D364114BDB6C03F00103FB60FB681C2394
:102E7000C7F8A4300223C7F8A8300023C7F8AC3045
:102E80000323C7F8B0300723C7F8B43007F1A40311
:102E900019464FF0904000F011FB00BFB837BD4617
:102EA00080BD00BF003801400010024000440040D7
:102EB00080B400AFFEE780B400AFFEE780B400AF9F
:102EC000FEE780B400AFFEE780B400AFFEE780B459
:102ED00000AF00BFBD465DF8047B704780B400AF13
:102EE00000BFBD465DF8047B704780B400AF00BFF3
:102EF000BD465DF8047B704780B500AF00F06CF90B
:102F000000BF80BD80B500AF024803F0DBF800BF12
:102F100080BD00BF6802002080B500AF024802F00B
:102F200041FD00BF80BD00BF0402002080B400AF9F
:102F300001231846BD465DF8047B704780B582B01A
:102F400000AF7860396004F01DFE034616221A6057
:102F50004FF0FF3318460837BD4680BD80B582B0BC
:102F600000AF78604FF0FF317868FFF7E7FFFEE7CA
:102F700080B586B000AFF860B9607A6000237B61ED
:102F80000AE0AFF300800146BB685A1CBA60CAB2BF
:102F90001A707B6901337B617A697B689A42F0DB46
:102FA0007B6818461837BD4680BD80B586B000AF37
:102FB000F860B9607A6000237B6109E0BB685A1C45
:102FC000BA601B781846FEF7D9FF7B6901337B6135
:102FD0007A697B689A42F1DB7B6818461837BD46F0
:102FE00080BD80B483B000AF78604FF0FF331846E7
:102FF0000C37BD465DF8047B704780B483B000AFEA
:10300000786039603B684FF400525A6000231846DC
:103010000C37BD465DF8047B704780B483B000AFC9
:103020007860012318460C37BD465DF8047B704775
:1030300080B485B000AFF860B9607A6000231846AC
:103040001437BD465DF8047B7047000080B586B03C
:1030500000AF7860144A154BD31A7B617B693B61E2
:10306000134B1B68002B02D1114B124A1A60104BF4
:103070001A687B6813443A699A4207D204F082FDC9
:1030800003460C221A604FF0FF3309E0084B1B681F
:10309000FB60074B1A687B681344054A1360FB68A2
:1030A00018461837BD4680BD00800120000400008E
:1030B00058030020B004002080B400AF064BD3F8C2
:1030C0008830054A43F47003C2F8883000BFBD461B
:1030D0005DF8047B704700BF00ED00E0DFF834D0FE
:1030E000FFF7EAFF0C480D490D4A002302E0D458CF
:1030F000C4500433C4188C42F9D30A4A0A4C002342
:1031000001E013600432A242FBD304F041FDFFF75B
:1031100037F8FEE70080012000000020E8010020D1
:1031200098B10008E8010020AC040020FEE780B55B
:1031300082B000AF0023FB71032000F03DF90F20A7
:1031400000F00EF80346002B02D00123FB7101E0D2
:10315000FFF77AFDFB7918460837BD4680BD0000B1
:1031600080B584B000AF78600023FB73174B1B78E9
:10317000002B23D0164B1A68144B1B7819464FF4BA
:103180007A73B3FBF1F3B2FBF3F3184600F049F99D
:103190000346002B0FD17B680F2B09D800227968DA
:1031A0004FF0FF3000F013F90A4A7B68136007E024
:1031B0000123FB7304E00123FB7301E00123FB7394
:1031C000FB7B18461037BD4680BD00BF08000020BD
:1031D000000000200400002080B400AF064B1B78E4
:1031E0001A46064B1B681344044A136000BFBD46D1
:1031F0005DF8047B704700BF080000205C030020DE
:1032000080B400AF034B1B681846BD465DF8047BD5
:10321000704700BF5C03002080B485B000AF7860C9
:103220007B6803F00703FB600C4BDB68BB60BA688C
:103230004FF6FF031340BB60FB681A02BB681343E1
:1032400043F0BF6343F40033BB60044ABB68D36000
:1032500000BF1437BD465DF8047B704700ED00E009
:1032600080B400AF044BDB681B0A03F00703184669
:10327000BD465DF8047B704700ED00E080B483B08C
:1032800000AF0346FB7197F90730002B0BDBFB798E
:1032900003F01F02074997F907305B09012000FA84
:1032A00002F241F8232000BF0C37BD465DF8047BD5
:1032B000704700BF00E100E080B483B000AF034678
:1032C0003960FB7197F90730002B0ADB3B68DAB2F3
:1032D0000C4997F907301201D2B20B4483F800234E
:1032E0000AE03B68DAB20849FB7903F00F03043BBC
:1032F0001201D2B20B441A7600BF0C37BD465DF8FE
:10330000047B704700E100E000ED00E080B489B08C
:1033100000AFF860B9607A60FB6803F00703FB61F7
:10332000FB69C3F10703042B28BF0423BB61FB69BE
:103330000433062B02D9FB69033B00E000237B61C9
:103340004FF0FF32BB6902FA03F3DA43BB681A405D
:103350007B699A404FF0FF317B6901FA03F3D9434F
:103360007B680B40134318462437BD465DF8047B49
:103370007047000080B582B000AF78607B68013B89
:10338000B3F1807F01D301230FE00A4A7B68013B40
:1033900053600F214FF0FF30FFF78EFF054B0022E7
:1033A0009A60044B07221A60002318460837BD466E
:1033B00080BD00BF10E000E080B582B000AF786053
:1033C0007868FFF729FF00BF0837BD4680BD80B58C
:1033D00086B000AF0346B9607A60FB7300237B615F
:1033E000FFF73EFF78617A68B9687869FFF78EFF6A
:1033F000024697F90F3011461846FFF75DFF00BFF0
:103400001837BD4680BD80B582B000AF0346FB7162
:1034100097F907301846FFF731FF00BF0837BD4660
:1034200080BD80B582B000AF78607868FFF7A2FFFA
:10343000034618460837BD4680BD80B584B000AF4E
:1034400078600023FB737B6893F82530DBB2022B96
:1034500005D07B680422DA630123FB7329E07B68D3
:103460001B681A687B681B6822F00E021A607B6872
:103470001B681A687B681B6822F001021A607B686F
:103480005B6C03F01C027B681B6C012101FA02F2E9
:103490005A607B68012283F825207B68002283F82C
:1034A00024207B689B6B002B03D07B689B6B786828
:1034B0009847FB7B18461037BD4680BD80B487B067
:1034C00000AF7860396000237B617FE13B681A6858
:1034D00001217B6901FA03F31340FB60FB68002BB9
:1034E00000F071813B685B6803F00303012B05D09A
:1034F0003B685B6803F00303022B30D17B689B6859
:103500003B617B695B00032202FA03F3DB433A6908
:1035100013403B613B68DA687B695B0002FA03F3A6
:103520003A6913433B617B683A699A607B685B68E0
:103530003B6101227B6902FA03F3DB433A691340E2
:103540003B613B685B681B0903F001027B6902FA7F
:1035500003F33A6913433B617B683A695A603B68FD
:103560005B6803F00303032B18D17B68DB6A3B61C4
:1035700001227B6902FA03F3DB433A6913403B61A2
:103580003B685B68DB0803F001027B6902FA03F326
:103590003A6913433B617B683A69DA623B685B686E
:1035A00003F00303032B17D07B68DB683B617B6967
:1035B0005B00032202FA03F3DB433A6913403B61E9
:1035C0003B689A687B695B0002FA03F33A6913432C
:1035D0003B617B683A69DA603B685B6803F0030330
:1035E000022B23D17B69DA087B68083253F822303A
:1035F0003B617B6903F007039B000F2202FA03F390
:10360000DB433A6913403B613B681A697B6903F00D
:1036100007039B0002FA03F33A6913433B617B699A
:10362000DA087B680832396943F822107B681B6826
:103630003B617B695B00032202FA03F3DB433A69D7
:1036400013403B613B685B6803F003027B695B00EE
:1036500002FA03F33A6913433B617B683A691A60E3
:103660003B685B6803F44033002B00F0AC805F4B99
:103670001B6E5E4A43F0010313665C4B1B6E03F046
:103680000103BB60BB685A4A7B699B08023352F84E
:1036900023303B617B6903F003039B000F2202FA96
:1036A00003F3DB433A6913403B617B68B3F1904F0E
:1036B00025D07B684F4A93421FD07B684E4A934285
:1036C00019D07B684D4A934213D07B684C4A934291
:1036D0000DD07B684B4A934207D07B684A4A93429D
:1036E00001D106230CE007230AE0052308E00423A8
:1036F00006E0032304E0022302E0012300E00023AC
:103700007A6902F00302920093403A6913433B61E5
:1037100037497B699B0802333A6941F823203B4BC8
:103720009B683B61FB68DB433A6913403B613B6844
:103730005B6803F48013002B03D03A69FB681343E2
:103740003B61324A3B699360304BDB683B61FB680D
:10375000DB433A6913403B613B685B6803F4001349
:10376000002B03D03A69FB6813433B61274A3B694E
:10377000D360264B5B683B61FB68DB433A691340CF
:103780003B613B685B6803F40033002B03D03A696C
:10379000FB6813433B611D4A3B6953601B4B1B682D
:1037A0003B61FB68DB433A6913403B613B685B6804
:1037B00003F48033002B03D03A69FB6813433B6169
:1037C000124A3B6913607B6901337B613B681A686D
:1037D0007B6922FA03F3002B7FF478AE00BF00BFB1
:1037E0001C37BD465DF8047B704700BF00100240E7
:1037F000000001400004004800080048000C004898
:10380000001000480014004800180048000401405F
:1038100080B483B000AF78600B467B8013467B702A
:103820007B78002B03D07A887B689A6102E07A88E3
:103830007B689A6200BF0C37BD465DF8047B704719
:1038400080B400AF054B1B68044A43F480731360D7
:1038500000BFBD465DF8047B704700BF00700040AC
:1038600080B400AF044B1B6803F4C0631846BD4628
:103870005DF8047B704700BF0070004080B485B0E5
:1038800000AF78607B68B3F5007F30D1234B1B68B5
:1038900003F4C063B3F5007F38D0204B1B6823F4DA
:1038A000C0631E4A43F4007313601D4B1B68322231
:1038B00002FB03F31B4AA2FB03239B0C0133FB60B7
:1038C00002E0FB68013BFB60144B5B6903F480631F
:1038D000B3F5806F02D1FB68002BF2D10F4B5B690F
:1038E00003F48063B3F5806F10D103230FE00B4B1B
:1038F0001B6803F4C063B3F5806F07D0074B1B68E8
:1039000023F4C063054A43F4806313600023184620
:103910001437BD465DF8047B704700BF007000405F
:103920000000002083DE1B4380B588B000AF7860C4
:103930007B68002B01D10123CAE3974B9B6803F0FE
:103940000C03BB61944BDB6803F003037B617B6872
:103950001B6803F01003002B00F0E480BB69002B10
:1039600007D0BB690C2B40F08B807B69012B40F0AA
:103970008780894B1B6803F00203002B05D07B680E
:103980009B69002B01D10123A2E37B681A6A824B59
:103990001B6803F00803002B04D07F4B1B6803F067
:1039A000F00305E07C4BD3F894301B0903F0F003DF
:1039B000934223D27B681B6A184600F055FD0346EC
:1039C000002B01D0012383E3734B1B68724A43F041
:1039D00008031360704B1B6823F0F0027B681B6ABE
:1039E0006D4913430B606C4B5B6823F47F427B682B
:1039F000DB691B02684913434B6025E0664B1B687B
:103A0000654A43F008031360634B1B6823F0F00220
:103A10007B681B6A604913430B605F4B5B6823F450
:103A20007F427B68DB691B025B4913434B60BB69C8
:103A3000002B09D17B681B6A184600F015FD034670
:103A4000002B01D0012343E300F04AFC0246524B15
:103A50009B681B0903F00F035049CB5C03F01F0365
:103A600022FA03F34E4A13604E4B1B681846FFF7C9
:103A700077FB0346FB73FB7B002B52D0FB7B27E3DA
:103A80007B689B69002B32D0434B1B68424A43F052
:103A900001031360FFF7B4FB386108E0FFF7B0FBE8
:103AA00002463B69D31A022B01D9032310E33A4B98
:103AB0001B6803F00203002BF0D0374B1B68364A1B
:103AC00043F008031360344B1B6823F0F0027B685B
:103AD0001B6A314913430B602F4B5B6823F47F4211
:103AE0007B68DB691B022C4913434B601AE02A4BAD
:103AF0001B68294A23F001031360FFF781FB38613B
:103B000008E0FFF77DFB02463B69D31A022B01D97F
:103B10000323DDE2204B1B6803F00203002BF0D1EE
:103B200000E000BF7B681B6803F00103002B74D02A
:103B3000BB69082B05D0BB690C2B0ED17B69032B0D
:103B40000BD1154B1B6803F40033002B64D07B684A
:103B50005B68002B60D10123BAE27B685B68B3F538
:103B6000803F06D10C4B1B680B4A43F48033136033
:103B700026E07B685B68B3F5A02F15D1064B1B6868
:103B8000054A43F480231360034B1B68024A43F445
:103B90008033136014E000BF00100240A0AD0008A5
:103BA0000000002004000020A04B1B689F4A23F463
:103BB000803313609D4B1B689C4A23F48023136061
:103BC0007B685B68002B13D0FFF71AFB386108E0B5
:103BD000FFF716FB02463B69D31A642B01D9032376
:103BE00076E2924B1B6803F40033002BF0D014E014
:103BF000FFF706FB386108E0FFF702FB02463B696E
:103C0000D31A642B01D9032362E2884B1B6803F4A7
:103C10000033002BF0D100E000BF7B681B6803F08D
:103C20000203002B60D0BB69042B05D0BB690C2BB1
:103C300019D17B69022B16D17C4B1B6803F480637E
:103C4000002B05D07B68DB68002B01D101233FE20C
:103C5000764B5B6823F0F8527B681B691B0673493F
:103C600013434B6040E07B68DB68002B23D06F4B35
:103C70001B686E4A43F480731360FFF7C1FA386122
:103C800008E0FFF7BDFA02463B69D31A022B01D9BF
:103C900003231DE2654B1B6803F48063002BF0D007
:103CA000624B5B6823F0F8527B681B691B065F4917
:103CB00013434B6018E05D4B1B685C4A23F4807330
:103CC0001360FFF79DFA386108E0FFF799FA0246A2
:103CD0003B69D31A022B01D90323F9E1534B1B682B
:103CE00003F48063002BF0D17B681B6803F00803AA
:103CF000002B3CD07B685B69002B1CD04B4BD3F86E
:103D000094304A4A43F00103C2F89430FFF778FA3E
:103D1000386108E0FFF774FA02463B69D31A022BB8
:103D200001D90323D4E1414BD3F8943003F00203CB
:103D3000002BEFD01BE03D4BD3F894303B4A23F0EF
:103D40000103C2F89430FFF75BFA386108E0FFF72F
:103D500057FA02463B69D31A022B01D90323B7E174
:103D6000324BD3F8943003F00203002BEFD17B6881
:103D70001B6803F00403002B00F0A6800023FB77F0
:103D80002A4B9B6D03F08053002B0DD1274B9B6D6D
:103D9000264A43F080539365244B9B6D03F0805378
:103DA000BB60BB680123FB77214B1B6803F4807366
:103DB000002B18D11E4B1B681D4A43F480731360FF
:103DC000FFF71EFA386108E0FFF71AFA02463B696E
:103DD000D31A022B01D903237AE1154B1B6803F494
:103DE0008073002BF0D07B689B68012B08D10F4BB0
:103DF000D3F890300D4A43F00103C2F8903029E027
:103E00007B689B68052B15D1084BD3F89030074A87
:103E100043F00403C2F89030044BD3F89030034AC7
:103E200043F00103C2F8903014E000BF00100240DC
:103E3000007000409C4BD3F890309B4A23F0010364
:103E4000C2F89030984BD3F89030974A23F004038F
:103E5000C2F890307B689B68002B16D0FFF7D0F932
:103E600038610AE0FFF7CCF902463B69D31A41F208
:103E70008832934201D903232AE18B4BD3F8903047
:103E800003F00203002BEDD015E0FFF7B9F938611C
:103E90000AE0FFF7B5F902463B69D31A41F28832CE
:103EA000934201D9032313E17F4BD3F8903003F001
:103EB0000203002BEDD1FB7F012B05D17A4B9B6DCB
:103EC000794A23F0805393657B689B6A002B00F04E
:103ED000FE807B689B6A022B40F0D080724BDB68CF
:103EE0007B617B6903F003027B68DB6A9A4230D115
:103EF0007B6903F070027B681B6B013B1B019A42DC
:103F000027D17B6903F4FE427B685B6B1B029A42FC
:103F10001FD17B6903F400337A68926B072A14BFC0
:103F200001220022D2B2934213D17B6903F4C00272
:103F30007B68DB6B5B08013B5B059A4209D17B69BF
:103F400003F0C0627B681B6C5B08013B5B069A4216
:103F50006ED0BB690C2B69D0534B1B6803F0806398
:103F6000002B05D1504B1B6803F08053002B01D070
:103F70000123ADE04C4B1B684B4A23F08073136068
:103F8000FFF73EF9386108E0FFF73AF902463B696E
:103F9000D31A022B01D903239AE0434B1B6803F089
:103FA0000073002BF0D1404BDA68404B13407A6825
:103FB000D16A7A68126B013A120111437A68526B26
:103FC000120211437A68D26B5208013A520511432A
:103FD0007A68126C5208013A520611437A68926B61
:103FE000120952040A4330491343CB602E4B1B681D
:103FF0002D4A43F0807313602B4BDB682A4A43F051
:104000008073D360FFF7FCF8386108E0FFF7F8F839
:1040100002463B69D31A022B01D9032358E0224BF5
:104020001B6803F00073002BF0D050E001234FE039
:104030001D4B1B6803F00073002B48D11A4B1B6803
:10404000194A43F080731360174BDB68164A43F03C
:104050008073D360FFF7D4F8386108E0FFF7D0F839
:1040600002463B69D31A022B01D9032330E00E4BE1
:104070001B6803F00073002BF0D028E0BB690C2B09
:1040800023D0094B1B68084A23F080731360FFF7A5
:10409000B7F838610CE0FFF7B3F802463B69D31A72
:1040A000022B05D9032313E0001002408C809DF9F8
:1040B000094B1B6803F00073002BECD1064BDA6848
:1040C0000549064B1340CB6001E0012300E00023CB
:1040D00018462037BD4680BD00100240FCFFEEFEB2
:1040E00080B584B000AF786039607B68002B01D167
:1040F0000123E7E0754B1B6803F007033A689A4217
:1041000010D9724B1B6823F0070270493B681343B8
:104110000B606E4B1B6803F007033A689A4201D0AC
:104120000123CFE07B681B6803F00203002B10D053
:104130007B689A68664B9B6803F0F0039A4208D943
:10414000634B9B6823F0F0027B689B6860491343D4
:104150008B607B681B6803F00103002B4CD07B68ED
:104160005B68032B07D15A4B1B6803F00073002BCD
:1041700021D10123A6E07B685B68022B07D1544B59
:104180001B6803F40033002B15D101239AE07B68F0
:104190005B68002B07D14E4B1B6803F00203002B1A
:1041A00009D101238EE04A4B1B6803F48063002B86
:1041B00001D1012386E0464B9B6823F003027B6814
:1041C0005B68434913438B60FFF71AF8F8600AE015
:1041D000FFF716F80246FB68D31A41F28832934281
:1041E00001D903236EE03A4B9B6803F00C027B6815
:1041F0005B689B009A42EBD17B681B6803F002036B
:10420000002B10D07B689A68314B9B6803F0F00359
:104210009A4208D22E4B9B6823F0F0027B689B6881
:104220002B4913438B60294B1B6803F007033A6843
:104230009A4210D2254B1B6823F0070223493B68A2
:1042400013430B60214B1B6803F007033A689A4243
:1042500001D0012336E07B681B6803F00403002BC8
:1042600008D01B4B9B6823F4E0627B68DB6818492D
:1042700013438B607B681B6803F00803002B09D095
:10428000134B9B6823F460527B681B69DB00104969
:1042900013438B6000F024F802460D4B9B681B090A
:1042A00003F00F030B49CB5C03F01F0322FA03F367
:1042B000094A1360094B1B681846FEF751FF034675
:1042C000FB72FB7A18461037BD4680BD00200240C5
:1042D00000100240A0AD00080000002004000020F3
:1042E00080B489B000AF0023FB610023BB613E4B6B
:1042F0009B6803F00C033B613B4BDB6803F003035B
:10430000FB603B69002B05D03B690C2B21D1FB687E
:10431000012B1ED1344B1B6803F00803002B07D17F
:10432000314BD3F894301B0A03F00F03FB6105E017
:104330002D4B1B681B0903F00F03FB612B4AFB6924
:1043400052F82330FB613B69002B0DD1FB69BB6147
:104350000AE03B69042B02D1254BBB6104E03B69B9
:10436000082B01D1234BBB613B690C2B34D11E4B75
:10437000DB6803F00303BB60BB68022B03D0BB68A0
:10438000032B03D005E01A4B7B6105E0194B7B61E1
:1043900002E0FB697B6100BF134BDB681B0903F084
:1043A000070301337B60104BDB681B0A03F07F03BC
:1043B0007A6903FB02F27B68B2FBF3F37B610A4B81
:1043C000DB685B0E03F0030301335B003B607A693B
:1043D0003B68B2FBF3F3BB61BB6918462437BD46AB
:1043E0005DF8047B704700BF00100240B8AD0008C4
:1043F0000024F40000127A0080B400AF034B1B6865
:104400001846BD465DF8047B704700BF00000020E1
:1044100080B500AFFFF7F0FF0246064B9B681B0A12
:1044200003F007030449CB5C03F01F0322FA03F3F4
:10443000184680BD00100240B0AD000880B500AF46
:10444000FFF7DAFF0246064B9B68DB0A03F007031F
:104450000449CB5C03F01F0322FA03F3184680BD26
:1044600000100240B0AD000880B586B000AF7860A3
:1044700000233B612A4B9B6D03F08053002B03D03C
:10448000FFF7EEF9786114E0254B9B6D244A43F069
:1044900080539365224B9B6D03F08053FB60FB6858
:1044A000FFF7DEF978611E4B9B6D1D4A23F08053A8
:1044B00093657B69B3F5007F0BD17B68802B19D99D
:1044C0007B68A02B02D902233B6113E001233B61EF
:1044D00010E07B68802B02D903233B610AE07B68F4
:1044E000802B02D102233B6104E07B68702B01D159
:1044F00001233B610B4B1B6823F0070209493B6911
:1045000013430B60074B1B6803F007033A699A4299
:1045100001D0012300E0002318461837BD4680BDB6
:10452000001002400020024080B586B000AF7860E5
:104530000023FB740023BB747B681B6803F40063D7
:10454000002B41D07B685B6EB3F5400F2AD0B3F5EA
:10455000400F24D8B3F5000F08D0B3F5000F1ED8D4
:10456000002B0AD0B3F5800F10D018E0864BDB6823
:10457000854A43F48033D36015E07B68043300211F
:10458000184600F0CBFA0346FB740CE07B6820333E
:104590000021184600F0B6FB0346FB7403E001233C
:1045A000FB7400E000BFFB7C002B0BD1764BD3F8F3
:1045B000883023F440027B685B6E73491343C1F873
:1045C000883001E0FB7CBB747B681B6803F480537C
:1045D000002B41D07B689B6EB3F1407F2AD0B3F1B2
:1045E000407F24D8B3F1007F08D0B3F1007F1ED8FC
:1045F000002B0AD0B3F1807F10D018E0624BDB684B
:10460000614A43F48033D36015E07B6804330021B2
:10461000184600F083FA0346FB740CE07B682033F5
:104620000021184600F06EFB0346FB7403E00123F3
:10463000FB7400E000BFFB7C002B0BD1524BD3F886
:10464000883023F040727B689B6E4F491343C1F85A
:10465000883001E0FB7CBB747B681B6803F400338B
:10466000002B00F0A08000237B74474B9B6D03F070
:104670008053002B01D1012300E00023002B0DD03B
:10468000414B9B6D404A43F0805393653E4B9B6D7D
:1046900003F08053BB60BB6801237B743B4B1B68FA
:1046A0003A4A43F480731360FEF7AAFDF86009E00C
:1046B000FEF7A6FD0246FB68D31A022B02D903239C
:1046C000FB7405E0314B1B6803F48073002BEFD0C3
:1046D000FB7C002B5CD12C4BD3F8903003F440735F
:1046E0007B617B69002B1FD07B68D3F884307A69AB
:1046F0009A4219D0244BD3F8903023F440737B6155
:10470000214BD3F89030204A43F48033C2F89030E4
:104710001D4BD3F890301C4A23F48033C2F89030FC
:10472000194A7B69C2F890307B6903F00103002BC2
:1047300016D0FEF765FDF8600BE0FEF761FD02465E
:10474000FB68D31A41F28832934202D90323FB74E7
:1047500006E00D4BD3F8903003F00203002BECD0B1
:10476000FB7C002B0CD1084BD3F8903023F4407223
:104770007B68D3F8843004491343C1F8903009E0D2
:10478000FB7CBB7406E000BF0010024000700040DC
:10479000FB7CBB747B7C012B05D19E4B9B6D9D4AA2
:1047A00023F0805393657B681B6803F00103002BA3
:1047B0000AD0984BD3F8883023F003027B689B6BB8
:1047C00094491343C1F888307B681B6803F00203E7
:1047D000002B0AD08F4BD3F8883023F00C027B6873
:1047E000DB6B8C491343C1F888307B681B6803F08E
:1047F0000403002B0AD0874BD3F8883023F0300213
:104800007B681B6C83491343C1F888307B681B6845
:1048100003F00803002B0AD07E4BD3F8883023F036
:10482000C0027B685B6C7B491343C1F888307B68AE
:104830001B6803F01003002B0AD0764BD3F88830A6
:1048400023F440727B689B6C72491343C1F8883033
:104850007B681B6803F02003002B0AD06D4BD3F854
:10486000883023F440627B68DB6C6A491343C1F8EB
:1048700088307B681B6803F40073002B0AD0654BFB
:10488000D3F8883023F440227B68DB6D6149134301
:10489000C1F888307B681B6803F48063002B0AD062
:1048A0005C4BD3F8883023F440127B681B6E594967
:1048B0001343C1F888307B681B6803F04003002B6A
:1048C0000AD0544BD3F8883023F440527B681B6DD8
:1048D00050491343C1F888307B681B6803F080039C
:1048E000002B0AD04B4BD3F8883023F440427B682E
:1048F0005B6D48491343C1F888307B681B6803F43B
:104900008073002B0AD0434BD3F8883023F4403215
:104910007B689B6D3F491343C1F888307B681B68F7
:1049200003F40053002B28D03A4BD3F8883023F0FF
:1049300040627B68DB6E37491343C1F888307B687F
:10494000DB6EB3F1006F06D1324BDB68314A43F4C2
:104950008013D36011E07B68DB6EB3F1806F0CD104
:104960007B6804330121184600F0D8F80346FB7435
:10497000FB7C002B01D0FB7CBB747B681B6803F4C1
:104980000023002B28D0234BD3F8883023F040623B
:104990007B681B6F1F491343C1F888307B681B6F0E
:1049A000B3F1006F06D11B4BDB681A4A43F4801346
:1049B000D36011E07B681B6FB3F1806F0CD17B6813
:1049C00004330121184600F0A9F80346FB74FB7C70
:1049D000002B01D0FB7CBB747B681B6803F4802335
:1049E000002B2BD00B4BD3F8883023F040627B6830
:1049F0005B6F08491343C1F888307B685B6FB3F184
:104A0000006F09D1034BDB68024A43F48013D36083
:104A100014E000BF001002407B685B6FB3F1806F51
:104A20000CD17B6804330121184600F077F8034667
:104A3000FB74FB7C002B01D0FB7CBB747B681B6888
:104A400003F48043002B2FD02B4BD3F8883023F076
:104A500040527B689B6F28491343C1F888307B68BC
:104A60009B6FB3F1805F0DD17B6804330221184640
:104A700000F054F80346FB74FB7C002B14D0FB7C45
:104A8000BB7411E07B689B6FB3F1005F0CD17B6856
:104A900020330221184600F035F90346FB74FB7CF5
:104AA000002B01D0FB7CBB747B681B6803F40043C4
:104AB000002B0AD0104BD3F8883023F080427B685B
:104AC000DB6F0D491343C1F888307B681B6803F422
:104AD0008033002B0BD0084BD3F8883023F00042F2
:104AE0007B68D3F8803004491343C1F88830BB7C1D
:104AF00018461837BD4680BD0010024080B400AF94
:104B0000054B1B68044A43F00403136000BFBD4615
:104B10005DF8047B704700BF0010024080B584B090
:104B200000AF786039600023FB73754BDB6803F0DE
:104B30000303002B18D0724BDB6803F003027B6881
:104B40001B689A420DD17B681B68002B09D06C4B07
:104B5000DB681B0903F007035A1C7B685B689A42F9
:104B600047D00123FB7344E07B681B68032B18D0FC
:104B7000032B25D8012B02D0022B09D020E0604B5B
:104B80001B6803F00203002B1DD10123FB731AE005
:104B90005B4B1B6803F48063002B16D10123FB736E
:104BA00013E0574B1B6803F40033002B0FD1544B19
:104BB0001B6803F48023002B09D10123FB7306E05B
:104BC0000123FB7304E000BF02E000BF00E000BF70
:104BD000FB7B002B0DD14A4BDB6823F073027B6813
:104BE00019687B685B68013B1B010B434449134315
:104BF000CB60FB7B002B7DD1414B1B68404A23F0EF
:104C000080631360FEF7FCFAB86009E0FEF7F8FA7B
:104C10000246BB68D31A022B02D90323FB7305E0BB
:104C2000374B1B6803F00063002BEFD1FB7B002B9D
:104C300060D13B68002B11D1314B1B6923F41F332A
:104C400023F440737A68926811027A68D268120974
:104C500052040A432A4913430B6127E03B68012BA6
:104C600012D1274B1B6923F4C00323F4FE437A6857
:104C7000926811027A6812695208013A52050A4391
:104C80001F4913430B6111E01D4B1B6923F0C063E7
:104C900023F4FE437A68926811027A6852695208D6
:104CA000013A52060A43164913430B61144B1B6821
:104CB000134A43F080631360FEF7A2FAB86009E07C
:104CC000FEF79EFA0246BB68D31A022B02D90323D1
:104CD000FB7305E00A4B1B6803F00063002BEFD069
:104CE000FB7B002B06D1064B1A697B689B69044944
:104CF00013430B61FB7B18461037BD4680BD00BFD8
:104D00000010024080B584B000AF786039600023A5
:104D1000FB736A4BDB6803F00303002B18D0674B6F
:104D2000DB6803F003027B681B689A420DD17B6845
:104D30001B68002B09D0614BDB681B0903F00703DC
:104D40005A1C7B685B689A4247D00123FB7344E09E
:104D50007B681B68032B18D0032B25D8012B02D0AE
:104D6000022B09D020E0554B1B6803F00203002BF7
:104D70001DD10123FB731AE0504B1B6803F48063C1
:104D8000002B16D10123FB7313E04C4B1B6803F47B
:104D90000033002B0FD1494B1B6803F48023002BF9
:104DA00009D10123FB7306E00123FB7304E000BF7C
:104DB00002E000BF00E000BFFB7B002B0DD13F4BAA
:104DC000DB6823F073027B6819687B685B68013BD2
:104DD0001B010B4339491343CB60FB7B002B67D18D
:104DE000364B1B68354A23F080531360FEF708FAF0
:104DF000B86009E0FEF704FA0246BB68D31A022B3A
:104E000002D90323FB7305E02C4B1B6803F000530E
:104E1000002BEFD1FB7B002B4AD13B68002B11D13B
:104E2000264B5B6923F41F3323F440737A6892683E
:104E300011027A68D268120952040A431F491343C7
:104E40004B6111E01D4B5B6923F0C06323F4FE430B
:104E50007A68926811027A6812695208013A520619
:104E60000A43164913434B61144B1B68134A43F022
:104E700080531360FEF7C4F9B86009E0FEF7C0F98B
:104E80000246BB68D31A022B02D90323FB7305E049
:104E90000A4B1B6803F00053002BEFD0FB7B002B69
:104EA00006D1064B5A697B685B69044913434B6121
:104EB000FB7B18461037BD4680BD00BF0010024086
:104EC00080B584B000AF78607B68002B01D10123EE
:104ED00095E07B685B6A002B08D17B685B68B3F563
:104EE000827F09D07B680022DA6105E07B680022BE
:104EF0001A617B6800225A617B6800229A627B6893
:104F000093F85D30DBB2002B06D17B68002283F87A
:104F10005C207868FDF7BCFE7B68022283F85D2088
:104F20007B681B681A687B681B6822F040021A6065
:104F30007B68DB68B3F5E06F02D90023FB6002E019
:104F40004FF48053FB607B68DB68B3F5706F07D06C
:104F50007B68DB68B3F5E06F02D07B6800229A6261
:104F60007B685B6803F482727B689B6803F404438C
:104F70001A437B681B6903F002031A437B685B6971
:104F800003F001031A437B689B6903F400731A431F
:104F90007B68DB6903F038031A437B681B6A03F004
:104FA000800342EA03017B689B6A03F400527B683A
:104FB0001B680A431A607B689B691B0C03F00402A0
:104FC0007B685B6A03F010031A437B685B6B03F03A
:104FD00008031A437B68DB6803F4706342EA030149
:104FE000FB6803F480527B681B680A435A607B6845
:104FF00000221A667B68012283F85D200023184690
:105000001037BD4680BD80B588B000AFF860B9608C
:105010003B601346FB800023FB77FB6893F85C3012
:10502000012B01D102235FE1FB68012283F85C20A0
:10503000FEF7E6F8B861FB88FB82FB6893F85D3009
:10504000DBB2012B02D00223FB7748E1BB68002BC7
:1050500002D0FB88002B02D10123FB773FE1FB68E4
:10506000032283F85D20FB6800221A66FB68BA6899
:105070009A63FB68FA889A87FB68FA88DA87FB6884
:1050800000221A64FB680022A3F84420FB68002277
:10509000A3F84620FB6800221A65FB680022DA6448
:1050A000FB689B68B3F5004F0FD1FB681B681A685B
:1050B000FB681B6822F040021A60FB681B681A68D4
:1050C000FB681B6842F480421A60FB681B681B681F
:1050D00003F04003402B07D0FB681B681A68FB688D
:1050E0001B6842F040021A60FB68DB68B3F5E06FB2
:1050F0004FD9FB685B68002B02D0FB8A012B42D1A1
:10510000FB689B6B1A88FB681B68DA60FB689B6B0B
:105110009A1CFB689A63FB68DB8F9BB2013B9AB2D7
:10512000FB68DA872FE0FB681B689B6803F00203CB
:10513000022B12D1FB689B6B1A88FB681B68DA6034
:10514000FB689B6B9A1CFB689A63FB68DB8F9BB2C6
:10515000013B9AB2FB68DA8715E0FEF751F8024688
:10516000BB69D31A3A689A4203D83B68B3F1FF3F50
:1051700002D13B68002B06D10323FB77FB68012299
:1051800083F85D20ABE0FB68DB8F9BB2002BCAD1BC
:1051900080E0FB685B68002B02D0FB8A012B74D196
:1051A000FB68DB8F9BB2012B12D9FB689B6B1A88C3
:1051B000FB681B68DA60FB689B6B9A1CFB689A6350
:1051C000FB68DB8F9BB2023B9AB2FB68DA875CE03C
:1051D000FB689A6BFB681B680C3312781A70FB68CB
:1051E0009B6B5A1CFB689A63FB68DB8F9BB2013B8D
:1051F0009AB2FB68DA8748E0FB681B689B6803F09B
:105200000203022B2BD1FB68DB8F9BB2012B12D93F
:10521000FB689B6B1A88FB681B68DA60FB689B6BFA
:105220009A1CFB689A63FB68DB8F9BB2023B9AB2C5
:10523000FB68DA8729E0FB689A6BFB681B680C3314
:1052400012781A70FB689B6B5A1CFB689A63FB68A8
:10525000DB8F9BB2013B9AB2FB68DA8715E0FDF762
:10526000CFFF0246BB69D31A3A689A4203D83B681B
:10527000B3F1FF3F02D13B68002B06D10323FB773C
:10528000FB68012283F85D2029E0FB68DB8F9BB27D
:10529000002BB1D1BA693968F86800F00DFE0346F9
:1052A000002B02D0FB6820221A66FB689B68002B4B
:1052B0000AD100233B61FB681B68DB683B61FB682C
:1052C0001B689B683B613B69FB681B6E002B02D02F
:1052D0000123FB7703E0FB68012283F85D20FB6874
:1052E000002283F85C20FB7F18462037BD4680BD36
:1052F00080B588B002AFF860B9603B601346FB80B0
:105300000023FB75FB6893F85D30DBB2012B02D004
:105310000223FB751AE1FB685B68B3F5827F12D14B
:10532000FB689B68002B0ED1FB68042283F85D208C
:10533000FA883B6800931346BA68B968F86800F0C9
:105340000EF9034607E1FB6893F85C30012B01D1AD
:10535000022300E1FB68012283F85C20FDF750FF87
:105360003861BB68002B02D0FB88002B02D10123DF
:10537000FB75EBE0FB68042283F85D20FB680022EC
:105380001A66FB68BA681A64FB68FA88A3F84420B6
:10539000FB68FA88A3F84620FB6800229A63FB6842
:1053A00000229A87FB680022DA87FB680022DA6411
:1053B000FB6800221A65FB68DB68B3F5E06F08D96B
:1053C000FB681B685A68FB681B6822F480525A60AD
:1053D00007E0FB681B685A68FB681B6842F4805250
:1053E0005A60FB689B68B3F5004F0FD1FB681B68E0
:1053F0001A68FB681B6822F040021A60FB681B6891
:105400001A68FB681B6822F480421A60FB681B68FC
:105410001B6803F04003402B07D0FB681B681A6829
:10542000FB681B6842F040021A60FB68DB68B3F55A
:10543000E06F6FD834E0FB681B689B6803F00103E2
:10544000012B17D1FB681B6803F10C02FB681B6C76
:105450001278D2B21A70FB681B6C5A1CFB681A6473
:10546000FB68B3F846309BB2013B9AB2FB68A3F8E5
:10547000462015E0FDF7C4FE02463B69D31A3A68A0
:105480009A4203D83B68B3F1FF3F02D13B68002B3F
:1054900006D10323FB75FB68012283F85D2055E0EC
:1054A000FB68B3F846309BB2002BC4D138E0FB68F0
:1054B0001B689B6803F00103012B15D1FB681B6877
:1054C000DA68FB681B6C92B21A80FB681B6C9A1C32
:1054D000FB681A64FB68B3F846309BB2013B9AB292
:1054E000FB68A3F8462015E0FDF78AFE02463B69FB
:1054F000D31A3A689A4203D83B68B3F1FF3F02D10E
:105500003B68002B06D10323FB75FB68012283F85F
:105510005D201BE0FB68B3F846309BB2002BC6D180
:105520003A693968F86800F06FFC0346002B02D036
:10553000FB6820221A66FB681B6E002B02D0012339
:10554000FB7503E0FB68012283F85D20FB68002205
:1055500083F85C20FB7D18461837BD4680BD80B5BA
:105560008AB000AFF860B9607A607B8001237B620B
:10557000002387F82330FB6893F85C30012B01D1BE
:1055800002230AE2FB68012283F85C20FDF738FE63
:10559000F861FB6893F85D30FB76FB685B687B61C4
:1055A0007B887B827B883B82FB7E012B0ED07B69D4
:1055B000B3F5827F06D1FB689B68002B02D1FB7E8E
:1055C000042B03D0022387F82330E0E1BB68002BD3
:1055D00005D07B68002B02D07B88002B03D10123F0
:1055E00087F82330D3E1FB6893F85D30DBB2042BFE
:1055F00003D0FB68052283F85D20FB6800221A6651
:10560000FB687A681A64FB687A88A3F84620FB680E
:105610007A88A3F84420FB68BA689A63FB687A88A2
:10562000DA87FB687A889A87FB680022DA64FB686D
:1056300000221A65FB68DB68B3F5E06F02D83B8A8D
:10564000012B08D9FB681B685A68FB681B6822F4A9
:1056500080525A6007E0FB681B685A68FB681B6849
:1056600042F480525A60FB681B681B6803F04003D9
:10567000402B07D0FB681B681A68FB681B6842F068
:1056800040021A60FB68DB68B3F5E06F40F281808E
:10569000FB685B68002B02D07B8A012B6DD1FB6815
:1056A0009B6B1A88FB681B68DA60FB689B6B9A1C13
:1056B000FB689A63FB68DB8F9BB2013B9AB2FB6885
:1056C000DA875AE0FB681B689B6803F00203022B31
:1056D0001BD1FB68DB8F9BB2002B16D07B6A012BA2
:1056E00013D1FB689B6B1A88FB681B68DA60FB6848
:1056F0009B6B9A1CFB689A63FB68DB8F9BB2013B38
:105700009AB2FB68DA8700237B62FB681B689B68A0
:1057100003F00103012B1CD1FB68B3F846309BB2A8
:10572000002B16D0FB681B68DA68FB681B6C92B212
:105730001A80FB681B6C9A1CFB681A64FB68B3F840
:1057400046309BB2013B9AB2FB68A3F84620012386
:105750007B62FDF755FD0246FB69D31A3A6B9A420C
:105760000BD83B6BB3F1FF3F07D0032387F82330FF
:10577000FB68012283F85D2009E1FB68DB8F9BB2A7
:10578000002B9FD1FB68B3F846309BB2002B99D118
:10579000E3E0FB685B68002B03D07B8A012B40F0C1
:1057A000CF80FB68DB8F9BB2012B12D9FB689B6B10
:1057B0001A88FB681B68DA60FB689B6B9A1CFB68A5
:1057C0009A63FB68DB8F9BB2023B9AB2FB68DA8775
:1057D000B6E0FB689A6BFB681B680C3312781A7092
:1057E000FB689B6B5A1CFB689A63FB68DB8F9BB260
:1057F000013B9AB2FB68DA87A2E0FB681B689B68F2
:1058000003F00203022B34D1FB68DB8F9BB2002B29
:105810002FD07B6A012B2CD1FB68DB8F9BB2012B35
:1058200012D9FB689B6B1A88FB681B68DA60FB68FF
:105830009B6B9A1CFB689A63FB68DB8F9BB2023BF5
:105840009AB2FB68DA8712E0FB689A6BFB681B6808
:105850000C3312781A70FB689B6B5A1CFB689A63B6
:10586000FB68DB8F9BB2013B9AB2FB68DA870023AF
:105870007B62FB681B689B6803F00103012B48D126
:10588000FB68B3F846309BB2002B42D0FB68B3F8FC
:1058900046309BB2012B23D9FB681B68DA68FB6892
:1058A0001B6C92B21A80FB681B6C9A1CFB681A6412
:1058B000FB68B3F846309BB2023B9AB2FB68A3F890
:1058C0004620FB68B3F846309BB2012B1FD8FB681B
:1058D0001B685A68FB681B6842F480525A6016E0E5
:1058E000FB681B6803F10C02FB681B6C1278D2B2D8
:1058F0001A70FB681B6C5A1CFB681A64FB68B3F8CF
:1059000046309BB2013B9AB2FB68A3F846200123C4
:105910007B62FDF775FC0246FB69D31A3A6B9A422B
:1059200003D83B6BB3F1FF3F02D13B6B002B07D198
:10593000032387F82330FB68012283F85D2026E0EB
:10594000FB68DB8F9BB2002B7FF457AFFB68B3F88B
:1059500046309BB2002B7FF450AFFA69396BF86880
:1059600000F0AAFA0346002B05D0012387F8233064
:10597000FB6820221A66FB681B6E002B03D00123F4
:1059800087F8233003E0FB68012283F85D20FB6881
:10599000002283F85C2097F8233018462837BD464C
:1059A00080BD000080B588B000AF78607B681B6860
:1059B0005B68FB617B681B689B68BB61BB6903F02C
:1059C0004003002B0ED1BB6903F00103002B09D06B
:1059D000FB6903F04003002B04D07B68DB6C786824
:1059E0009847CEE0BB6903F00203002B09D0FB69A6
:1059F00003F08003002B04D07B681B6D7868984708
:105A0000BFE0BB6903F02003002B0AD1BB6903F0A0
:105A10004003002B05D1BB6903F48073002B00F019
:105A2000B080FB6903F02003002B00F0AA80BB6963
:105A300003F04003002B23D07B6893F85D30DBB28A
:105A4000032B11D07B681B6E43F004027B681A663F
:105A500000237B617B681B68DB687B617B681B685C
:105A60009B687B617B690BE000233B617B681B6863
:105A7000DB683B617B681B689B683B613B6980E03E
:105A8000BB6903F02003002B14D07B681B6E43F02E
:105A900001027B681A660023FB607B681B689B68B9
:105AA000FB607B681B681A687B681B6822F04002F9
:105AB0001A60FB68BB6903F48073002B0CD07B6811
:105AC0001B6E43F008027B681A660023BB607B688C
:105AD0001B689B68BB60BB687B681B6E002B4FD04C
