:020000040802F0
:1000000000060030B50D0208B15E0C08410302087D
:10001000395E0C08315E0C08355E0C08B70D02081D
:10002000B70D0208B70D0208B70D0208D525110853
:10003000B70D0208B70D0208B70D0208B70D020888
:10004000B70D0208B70D0208B70D0208B70D020878
:10005000B70D0208B70D02080D3C1108393C110814
:10006000653C1108913C1108BD3C110859F7100876
:1000700081F71008ADF71008D9F7100805F8100837
:100080002DF8100859F810087DF31008B70D020874
:10009000B70D0208B70D0208B70D0208E93C1108B8
:1000A000B70D0208B70D0208B70D0208B70D020818
:1000B000B70D0208B70D0208B70D0208B70D020808
:1000C000B70D0208B70D0208B70D0208B70D0208F8
:1000D000B70D0208B70D0208B70D0208B70D0208E8
:1000E0004D3D1108B70D0208B70D0208B70D020803
:1000F000B70D0208B70D0208B70D020885F8100801
:10010000B70D0208B70D0208D53D1108B70D02085A
:10011000B70D0208B70D0208B70D0208B70D0208A7
:10012000B1F81008D9F8100805F9100831F91008CD
:100130005DF91008B70D0208B70D0208B70D0208E7
:10014000B70D0208B70D0208B70D0208B70D020877
:1001500085F91008B1F91008DDF91008B70D02088B
:10016000B70D0208B70D0208B70D0208B70D020857
:10017000B70D0208C1311108B70D0208B70D02080A
:10018000B70D0208B70D0208C13D1108B70D0208EE
:10019000B70D0208B70D0208B70D0208B70D020827
:1001A000B70D0208B70D0208B70D0208B70D020817
:1001B000B70D0208B70D0208B70D0208B70D020807
:1001C000B70D0208B70D0208B70D0208B70D0208F7
:1001D000B70D0208AD311108B70D0208B70D0208BE
:1001E000B70D0208B70D0208B70D0208B70D0208D7
:1001F000B70D0208B70D0208B70D0208B70D0208C7
:10020000B70D0208B70D0208B70D0208B70D0208B6
:10021000B70D0208B70D0208B70D0208B70D0208A6
:10022000B70D0208B70D0208B70D0208B70D020896
:10023000B70D0208B70D0208B70D02089DF31008AC
:10024000B70D020825F510084DF5100879F51008CE
:10025000A5F51008D1F51008FDF5100829F61008CD
:1002600055F61008B70D0208B70D0208B70D0208C1
:10027000B70D0208B70D0208B70D0208B70D020846
:10028000B70D0208B70D0208B70D0208B70D020836
:10029000B70D0208B70D0208B70D0208B70D020826
:1002A000B70D0208B70D0208B70D0208B70D020816
:1002B000B70D0208B70D0208B70D0208B70D020806
:1002C000B70D0208B70D0208B70D0208B70D0208F6
:1002D000B70D0208B70D0208B70D0208B70D0208E6
:1002E000C94302085579020895B402084D1A03085B
:1002F00065810308A923040879CB050891CB070879
:100300007DD1070815440808319E080811A6080881
:100310004DA90808E9340908D5AF09082DF40908E2
:100320009D5C0C08E97F0C0845920C08E53D0F0820
:100330009DE90F08ED2E1008EDBC1008000000002C
:10034000EFF30383EFF30982EFF30881DFF814D0B2
:100350002DE9FE4F684601F005F8BDE8FE4F8D46D9
:10036000704700007C300030F1EE101AA0EC200A3B
:1003700001607047A0EC108A704700BF81F0004117
:1003800002E000BF83F0004330B54FEA41044FEA7A
:10039000430594EA050F08BF90EA020F1FBF54EA15
:1003A000000C55EA020C7FEA645C7FEA655C00F0B1
:1003B000E2804FEA5454D4EB5555B8BF6D420CDD82
:1003C0002C4480EA020281EA030382EA000083EA05
:1003D000010180EA020281EA0303362D88BF30BDA5
:1003E00011F0004F4FEA01314FF4801C4CEA1131FB
:1003F00002D0404261EB410113F0004F4FEA03335A
:100400004CEA133302D0524263EB430394EA050FE4
:1004100000F0A780A4F10104D5F1200E0DDB02FA53
:100420000EFC22FA05F2801841F1000103FA0EF2E7
:10043000801843FA05F359410EE0A5F120050EF1AD
:10044000200E012A03FA0EFC28BF4CF0020C43FADE
:1004500005F3C01851EBE37101F0004507D54FF0EB
:10046000000EDCF1000C7EEB00006EEB0101B1F53B
:10047000801F1BD3B1F5001F0CD349085FEA300081
:100480004FEA3C0C04F101044FEA445212F5800F8C
:1004900080F09A80BCF1004F08BF5FEA500C50F129
:1004A000000041EB045141EA050130BD5FEA4C0C0C
:1004B000404141EB0101013C28BFB1F5801FE9D269
:1004C00091F0000F04BF01460020B1FA81F308BF8C
:1004D0002033A3F10B03B3F120020CDA0C3208DD58
:1004E00002F1140CC2F10C0201FA0CF021FA02F133
:1004F0000CE002F11402D8BFC2F1200C01FA02F1A3
:1005000020FA0CFCDCBF41EA0C019040E41AA2BFC7
:1005100001EB0451294330BD6FEA04041F3C1CDA8F
:100520000C340EDC04F11404C4F1200220FA04F0AF
:1005300001FA02F340EA030021FA04F345EA030159
:1005400030BDC4F10C04C4F1200220FA02F001FA1B
:1005500004F340EA0300294630BD21FA04F029469D
:1005600030BD94F0000F83F4801306BF81F4801136
:100570000134013D4EE77FEA645C18BF7FEA655CA9
:1005800029D094EA050F08BF90EA020F05D054EA7B
:10059000000C04BF1946104630BD91EA030F1EBF80
:1005A0000021002030BD5FEA545C05D14000494184
:1005B00028BF41F0004130BD14F580043CBF01F577
:1005C000801130BD01F0004545F0FE4141F470015D
:1005D0004FF0000030BD7FEA645C1ABF1946104638
:1005E0007FEA655C1CBF0B46024650EA013406BF39
:1005F00052EA033591EA030F41F4002130BD00BFF8
:1006000090F0000F04BF0021704730B54FF48064B4
:1006100004F132044FF000054FF0000150E700BF35
:1006200090F0000F04BF0021704730B54FF4806494
:1006300004F1320410F0004548BF40424FF0000181
:100640003EE700BF42004FEAE2014FEA31014FEAC4
:1006500002701FBF12F07F4393F07F4F81F0605113
:10066000704732F07F4208BF704793F07F4F04BF5E
:1006700041F40021704730B54FF4607401F000453B
:1006800021F000411CE700BF50EA010208BF70479B
:1006900030B54FF000050AE050EA010208BF70478C
:1006A00030B511F0004502D5404261EB41014FF4F5
:1006B000806404F132045FEA915C3FF4D8AE4FF0FD
:1006C00003025FEADC0C18BF03325FEADC0C18BFE0
:1006D000033202EBDC02C2F1200300FA03FC20FA31
:1006E00002F001FA03FE40EA0E0021FA02F114447E
:1006F000BDE600BF80F0004002E000BF81F0004195
:1007000042001FBF5FEA410392EA030F7FEA226CB7
:100710007FEA236C6AD04FEA1262D2EB1363C1BF47
:10072000D218414048404140B8BF5B42192B88BFB6
:10073000704710F0004F40F4000020F07F4018BFD9
:10074000404211F0004F41F4000121F07F4118BFF9
:10075000494292EA030F3FD0A2F1010241FA03FCA1
:1007600010EB0C00C3F1200301FA03F100F0004389
:1007700002D5494260EB4000B0F5000F13D3B0F151
:10078000807F06D340084FEA310102F10102FE2AC0
:1007900051D2B1F1004F40EBC25008BF20F0010030
:1007A00040EA03007047490040EB0000013A28BFCF
:1007B000B0F5000FEDD2B0FA80FCACF1080CB2EB52
:1007C0000C0200FA0CF0AABF00EBC25052421843D0
:1007D000BCBFD0401843704792F0000F81F4000175
:1007E00006BF80F400000132013BB5E74FEA410348
:1007F0007FEA226C18BF7FEA236C21D092EA030FB4
:1008000004D092F0000F08BF0846704790EA010F2D
:100810001CBF0020704712F07F4F04D1400028BF5A
:1008200040F00040704712F100723CBF00F500003C
:10083000704700F0004343F0FE4040F40000704772
:100840007FEA226216BF08467FEA2363014642021E
:1008500006BF5FEA412390EA010F40F48000704731
:100860004FF0000304E000BF10F0004348BF4042D7
:100870005FEA000C08BF704743F0964301464FF013
:1008800000001CE050EA010208BF70474FF000036F
:100890000AE000BF50EA010208BF704711F00043B0
:1008A00002D5404261EB41015FEA010C02BF844680
:1008B0000146002043F0B64308BFA3F18053A3F5DF
:1008C0000003BCFA8CF2083AA3EBC25310DB01FA26
:1008D00002FC634400FA02FCC2F12002BCF1004FAA
:1008E00020FA02F243EB020008BF20F0010070473B
:1008F00002F1200201FA02FCC2F1200250EA4C008F
:1009000021FA02F243EB020008BF20EADC707047D4
:100910007BB972B90029BEBF00204FF0004106E04C
:1009200008BF00281CBF6FF000414FF0FF3000F0FF
:100930003FBAADF1080C6DE904CE002909DB002BAC
:100940001ADB00F0CDF8DDF804E0DDE9022304B0A5
:100950007047404261EB4101002B1BDB00F0C0F807
:10096000DDF804E0DDE9022304B0404261EB41011F
:10097000524263EB43037047524263EB430300F080
:10098000AFF8DDF804E0DDE9022304B0404261EB9A
:1009900041017047524263EB430300F0A1F8DDF8D8
:1009A00004E0DDE9022304B0524263EB43037047E5
:1009B00053B94AB9002908BF00281CBF4FF0FF31C6
:1009C0004FF0FF3000F0F4B9ADF1080C6DE904CE42
:1009D00000F086F8DDF804E0DDE9022304B070479A
:1009E000430803F05533C01A830803F0333300F093
:1009F0003330184400EB101000F00F3000EB0020F3
:100A000000EB0040000E704707EE900AF5EEC07A4A
:100A1000F1EE10FA01D400F023B8F1EE677A08B5D0
:100A200017EE900A00F01CF8404261EB410108BD4E
:100A300008B502460B4643EC172BB5EEC07BF1EE32
:100A400010FA03D4BDE8084000F02AB8B1EE477BA5
:100A500051EC170B00F024F8404261EB410108BD56
:100A60009FED0B6B07EE900A9FED0B5BB7EEE77AFD
:100A700027EE066BBCEEC66BB8EE464BA4EE457B8C
:100A8000FCEEC77B16EE101A17EE900A704700BFF7
:100A9000000000000000F03D000000000000F041F8
:100AA0009FED0B6B41EC170B9FED0B5B27EE066B7D
:100AB000BCEEC66BB8EE464BA4EE457BFCEEC77BA6
:100AC00016EE101A17EE900A704700BFAFF30080C1
:100AD000000000000000F03D000000000000F041B8
:100AE0002DE9F047089D04468E46002B4DD18A42E1
:100AF000944669D9B2FA82F252B101FA02F3C2F114
:100B0000200120FA01F10CFA02FC41EA030E9440A4
:100B10004FEA1C48210CBEFBF8F61FFA8CF708FBC5
:100B200016E341EA034306FB07F199420AD91CEB9D
:100B3000030306F1FF3080F01F81994240F21C81CF
:100B4000023E63445B1AA4B2B3FBF8F008FB103317
:100B500044EA034400FB07F7A7420AD91CEB04044C
:100B600000F1FF3380F00A81A74240F2078164441C
:100B7000023840EA0640E41B00261DB1D4400023A1
:100B8000C5E900433146BDE8F0878B4209D9002D05
:100B900000F0EF800026C5E9000130463146BDE88F
:100BA000F087B3FA83F6002E4AD18B4202D38242F9
:100BB00000F2F980841A61EB030301209E46002DA8
:100BC000E0D0C5E9004EDDE702B9FFDEB2FA82F2FD
:100BD000002A40F09280A1EB0C014FEA1C471FFA5B
:100BE0008CFE0126200CB1FBF7F307FB131140EA42
:100BF00001410EFB03F0884208D91CEB010103F10F
:100C0000FF3802D2884200F2CB804346091AA4B2D0
:100C1000B1FBF7F007FB101144EA01440EFB00FEA4
:100C2000A64508D91CEB040400F1FF3102D2A64509
:100C300000F2BB800846A4EB0E0440EA03409CE7A8
:100C4000C6F12007B34022FA07FC4CEA030C20FA55
:100C500007F401FA06F31C43F9404FEA1C4900FA75
:100C600006F3B1FBF9F8200C1FFA8CFE09FB1811F2
:100C700040EA014108FB0EF0884202FA06F20BD965
:100C80001CEB010108F1FF3A80F08880884240F2B5
:100C90008580A8F102086144091AA4B2B1FBF9F0F9
:100CA00009FB101144EA014100FB0EFE8E4508D9F4
:100CB0001CEB010100F1FF346CD28E456AD9023879
:100CC000614440EA0840A0FB0294A1EB0E01A1425E
:100CD000C846A64656D353D05DB1B3EB080261EBCC
:100CE0000E0101FA07F722FA06F3F1401F43C5E9A6
:100CF000007100263146BDE8F087C2F12003D840DC
:100D00000CFA02FC21FA03F3914001434FEA1C471D
:100D10001FFA8CFEB3FBF7F007FB10360B0C43EA0F
:100D2000064300FB0EF69E4204FA02F408D91CEBBF
:100D3000030300F1FF382FD29E422DD902386344BD
:100D40009B1B89B2B3FBF7F607FB163341EA03415D
:100D500006FB0EF38B4208D91CEB010106F1FF38AC
:100D600016D28B4214D9023E6144C91A46EA0046A3
:100D700038E72E46284605E70646E3E61846F8E635
:100D80004B45A9D2B9EB020864EB0C0E0138A3E77E
:100D90004646EAE7204694E74046D1E7D0467BE75F
:100DA000023B614432E7304609E76444023842E7D7
:100DB000704700BF02E000F000F8FEE772B6374867
:100DC00080F30888364880F3098836483649086039
:100DD00040F20000CCF200004EF63471CEF2000179
:100DE0000860BFF34F8FBFF36F8F40F20000C0F277
:100DF000F0004EF68851CEF200010860BFF34F8F2D
:100E0000BFF36F8F4FF00000E1EE100A4EF63C7119
:100E1000CEF200010860062080F31488BFF36F8FC4
:100E2000F1F03AFCF2F0A8FC4FF055301F491B4A94
:100E300091423CBF41F8040BFAE71D49184A914220
:100E40003CBF41F8040BFAE71A491B4A1B4B9A4274
:100E50003EBF51F8040B42F8040BF8E70020184994
:100E6000184A91423CBF41F8040BFAE7F1F052FCFA
:100E7000F2F006FD144C154DAC4203DA54F8041B95
:100E80008847F9E703F002FA114C124DAC4203DA3D
:100E900054F8041B8847F9E7F1F03ABC000600302B
:100EA000002200300000020808ED00E000000030E1
:100EB00000060030A8D9140800220030842E00302B
:100EC000882E00303C540230E00202083C03020845
:100ED0003C0302083C0302082DE9F04F2DED108A77
:100EE000C1F80CD0D0F80CD0BDEC108ABDE8F08F62
:100EF000002383F311882846A0470020F0F06CFB04
:100F0000FEE7F0F003FA00DFFEE7000070B54FF0F7
:100F1000FF0C4CF4E06C1CEA11541DBF1CEA135585
:100F200094EA0C0F95EA0C0F00F0DEF82C4481EAED
:100F3000030621EA4C5123EA4C5350EA013518BF0D
:100F400052EA033541F4801143F4801338D0A0FBFA
:100F500002CE4FF00005E1FB02E506F00042E0FBA7
:100F600003E54FF00006E1FB03569CF0000F18BFAD
:100F70004EF0010EA4F1FF04B6F5007F64F5407455
:100F800004D25FEA4E0E6D4146EB060642EAC621E8
:100F900041EA55514FEAC52040EA5E504FEACE2E55
:100FA000B4F1FD0C88BFBCF5E06F1ED8BEF1004F58
:100FB00008BF5FEA500E50F1000041EB045170BDD4
:100FC00006F0004646EA010140EA020081EA030118
:100FD000B4EB5C04C2BFD4EB0C0541EA045170BD14
:100FE00041F480114FF0000E013C00F3AB8014F18E
:100FF000360FDEBF002001F0004170BDC4F10004D7
:10100000203C35DA0C341BDC04F11404C4F1200557
:1010100000FA05F320FA04F001FA05F240EA0200B2
:1010200001F0004221F0004110EBD37021FA04F6E8
:1010300042EB06015EEA430E08BF20EAD37070BDA2
:10104000C4F10C04C4F1200500FA04F320FA05F001
:1010500001FA04F240EA020001F0004110EBD37003
:1010600041F100015EEA430E08BF20EAD37070BD73
:10107000C4F1200500FA05F24EEA020E20FA04F34C
:1010800001FA05F243EA020321FA04F001F00041FB
:1010900021FA04F220EA020000EBD3705EEA430E6C
:1010A00008BF20EAD37070BD94F0000F0FD101F09B
:1010B0000046400041EB010111F4801F08BF013CD4
:1010C000F7D041EA060195F0000F18BF704703F012
:1010D0000046520043EB030313F4801F08BF013D99
:1010E000F7D043EA0603704794EA0C0F0CEA135555
:1010F00018BF95EA0C0F0CD050EA410618BF52EA0F
:101100004306D1D181EA030101F000414FF0000014
:1011100070BD50EA410606BF1046194652EA430622
:1011200019D094EA0C0F02D150EA013613D195EA96
:101130000C0F05D152EA03361CBF104619460AD1DE
:1011400081EA030101F0004141F0FE4141F47001E8
:101150004FF0000070BD41F0FE4141F4780170BDD8
:101160004FEA410212F5001215D211D56FF47873CF
:10117000B3EB625212D94FEAC12343F0004343EA72
:10118000505311F0004F23FA02F018BF404270474D
:101190004FF00000704750EA013005D111F00040D7
:1011A00008BF6FF0004070474FF00000704700BF6D
:1011B0004FEA4102B2F1E04324BFB3F5001CDCF179
:1011C000FE5C0DD901F0004C4FEAC0024CEA5070B1
:1011D000B2F1004F40EB830008BF20F001007047E0
:1011E00011F0804F21D113F13872BCBF01F00040E3
:1011F000704741F480114FEA5252C2F11802C2F115
:10120000200C10FA0CF320FA02F018BF40F0010095
:101210004FEAC1234FEAD32303FA0CFC40EA0C0047
:1012200023FA02F34FEA4303CCE77FEA625307D184
:1012300050EA01331EBF4FF0FE4040F440007047BB
:1012400001F0004040F0FE4040F40000704700BF55
:1012500001F0FF01102A2BDB10F0070F08D010F867
:10126000013B013A8B422DD010F0070F42B3F6D16B
:10127000F0B441EA012141EA014122F007047FF084
:1012800000070023F0E80256083C85EA010586EADB
:10129000010685FA47F5A3FA87F586FA47F6A5FA17
:1012A00087F68EB9EED1F0BC01F0FF0102F0070223
:1012B00032B110F8013B013A83EA010313B1F8D1CE
:1012C0000020704701387047002D06BF35460338AF
:1012D000073815F0010F07D1013015F4807F02BFE8
:1012E000013015F4C03F0130F0BC0138704700BF39
:1012F000EC46A0E8F05F4FF000007047B0E8F05F08
:10130000E546080008BF0120704700BF10F8012B18
:1013100011F8013B012A28BF9A42F7D0D01A704732
:10132000034613F8012B002AFBD1181A0138704725
:1013300010B5044620461CB154F80C3B013300D1D3
:1013400010BD0822012100F0F3F954F80C0C54F8F8
:10135000082C14F8041C121AB2FBF1F200F0E8F9A0
:10136000E8E70000C26AD0E9003112F0040F2DE96D
:10137000F04118BF0B46A6B00021594C04260127A6
:101380000291CDE90003D0064CBF03F1200203F126
:1013900068020392DA690399D2099B6902F0040298
:1013A0001B880A4303F47F4303924FF0E022A3F526
:1013B0003E41D2F8882D02F4A002B2F5A00F04BF7E
:1013C000012202924B424B410493464D03A82C60EC
:1013D00000F00EFA04220121434800F0A9F904228A
:1013E000012102A800F0A4F910220121019800F0C7
:1013F0009FF90098202201210C3000F099F9019802
:1014000004220121103000F093F90422012103A8E5
:1014100000F08EF901980C220121143000F088F9B7
:101420000C220121009800F083F9029BDA071FD5F6
:10143000009BDB6ADB064ED415A8FEF79BFFDDF8A8
:1014400004C00DF1140E0CF120030CF160081868B3
:10145000083353F8041C7246434503C29646F6D13E
:10146000DCF8603025938422012105A800F060F9A2
:1014700000F08CF8FFF75CFF4FF0E023D3F8003D5D
:1014800003F47023B3F5402F0ED0184B05A88DF848
:101490001C60059314338DF8287006934FF0FF33CA
:1014A000CDE90833FFF744FF2B68A34206D0104B69
:1014B0000422012105A8059300F03AF900F0E6F9AD
:1014C000002882D0049B1BB1019A93690233936177
:1014D00026B0BDE8F08105A8FEF746FFC3E700BFD0
:1014E000ED55CEAC882E0030ACCD110828ED00E0D3
:1014F000ACCE55ED37B50E4D2A78202A15D10D4CBE
:101500000D4823680D4918440192F0F073FC2368DC
:101510000021019A2033094829702360F6F0F6FC77
:1015200003B0BDE83040F1F01FB803B030BD00BFDC
:101530007C300030A430003040E614087D300030AC
:10154000014B1868704700BFFCFF1F08014B0248A1
:10155000C01A704740E61408000020080048704791
:1015600040E6140807490022074B5B1A9A4201D350
:101570000120704751F8040B013001D10432F5E726
:101580000020704740E61408000020085A4B2DE95F
:10159000F74F1F680224594B07F56A57DFF880910F
:1015A0001B781837DFF87C81554D1F44DFF878A190
:1015B000EFF0D0FDA9EB080B06460EB13A2C41D94D
:1015C000A9EB0803B3EB070C24D4DFF860E1661C39
:1015D0004C4A0C21F6B2AEEB0200614360456FDD70
:1015E000681801276A50624407721F464260DB1B7D
:1015F00077D445490234454FE4B2CA1B9A424FF0B2
:101600000C0206FB02F266DDA91801203B44AF5034
:1016100008724B603B2C66D80C2301225C432B19CB
:101620001A724FF0FF322A515A60394B1B782BB196
:10163000384B1B682B60384B1B686B60304803B01D
:10164000BDE8F08F336AF06953450ABF334BF31A94
:10165000A3EB0A0380B10193F0F0AEFD019B58B1FA
:1016600022460C2101344A430121E4B2A818017238
:10167000F169A9500D3141600C2001211F4400FB8C
:1016800004FC5F4505EB0C0245F80C6006F13C0CD0
:101690001172C2F804C004EB010204F10204D2B2D8
:1016A000E4B200FB02F205EB02000172316AA950BC
:1016B00019444160AED23046EFF05CFD06467CE74F
:1016C00005EB010C4FF0010807446A508CF80880C4
:1016D000CCF804E08BE7AB180120AF5018725960CA
:1016E00098E7344696E7012385F8CC324FF0FF3374
:1016F000C5E9B13399E700BFA43000307C30003039
:1017000004220030882E00300000043040540230A3
:1017100000220030A8300030A0300030002200301D
:101720000000200840E61408000600303C54023057
:101730002DE9F84F284B06460F4690461B7823B3F9
:10174000264A0025264BA2EB03090EE0FFF7D2FE46
:10175000022F1CD0042F2BD0012F06D12378715DCE
:101760005A1C22701F4AD1540135A8450DD01E4B7A
:101770001E4C1B682278043313444B45E6D3194BA7
:101780004FF0FF32DA6120232370BDE8F88F237811
:10179000DFF850A05A1C227032780AF80320FFF7B5
:1017A000A9FE23785A1C227000220AF80320DBE7E6
:1017B0004FF0000ADFF82CB022783378511C23FA5E
:1017C0000AF30AF1080A21700BF80230FFF792FEC3
:1017D000BAF1200FF0D1C7E7002200300000200846
:1017E00040E614087D300030A43000307C300030FA
:1017F00070B502680446EFF305811F4DC9B2536905
:10180000D920A4F01BFB2B783BB124681CB12046E7
:10181000F0F0D2FC10B900232B7070BD2046174E9B
:10182000F0F0DEFC00F2145084421FD22046F0F0AB
:10183000D7FC30602046124EF0F0E6FC04F5E05391
:10184000834217D92046F0F0DFFC306000230D4AB8
:1018500013600D4A1370FFF785FE0028DBD0F0F00F
:1018600083FE0120BDE87040F0F040BBA4F21453A9
:101870003360DFE73360E9E700220030A830003052
:10188000A0300030A43000307C300030214B1B7879
:1018900070B5002B3BD0204E204C33682048214DA2
:1018A0001A1D21782D1A0A44AA4205D31E4A4FF068
:1018B000FF31D161202222702278D2B103F12001C0
:1018C0008D4205D81F2A9FBF174AD361202222705C
:1018D000202215491844F0F08DFA3268237800214F
:1018E00011481344202221703360F6F00FFBF0F012
:1018F0003BFE33689D4207D90B4920220B48CB6140
:10190000F0F078FAF0F030FE0020F0F0EFFA00206E
:1019100070BD00BF00220030A43000307C300030A9
:1019200040E61408000020087D300030E0FF1F086A
:101930007FB50391402105469AF0ECFA039A18B955
:101940000124204604B070BD134E039296F936353B
:10195000002BF5D06FF01CFE437A039A53B96FF059
:1019600017FE847A039A2CB90C4B402128469AF032
:10197000D9FAE6E70A4BB6F93815D3F86C32B3F961
:1019800006309942DCDD074B4021284600240093B5
:10199000054B9AF0C7FAD4E7B0700030B0CD11080B
:1019A000B0800030CFCD1108BDCD1108F0B50D4687
:1019B00091B0202104469AF0ADFA002800F0A580ED
:1019C000534E96F93635BBB106F58052B6F9383527
:1019D000D2F86C22B2F90A1003F10A02914203DD37
:1019E00040F28D32934207DC4A4B2A4620212046A2
:1019F0009AF098FA002086E096F92535022B05D159
:101A0000454B2A46202120469AF08CFAB6F8F83445
:101A100041F65832A3F57A739BB293420FD83F4FE9
:101A200006F26452D7F8F83092ED007AD3ED097AD5
:101A3000B4EEE77AF1EE10FA03DD394BD5E7394B16
:101A4000D3E706F5AD62D3ED0B7A92ED007AB4EEF2
:101A5000E77AF1EE10FAF0DCB6F93235002B01DC52
:101A6000314BC2E796F8F4260D2A04D84FF42153DF
:101A7000D340DA071DD42D4811F072FB012806D19E
:101A8000D7F8040192F05AFDA8B101281CD000211A
:101A90002E2204A80391F6F039FA322303AA24492E
:101AA000D7F8000190F0E2FE20BB03AB0093214B7E
:101AB00004E0214B99E7214B0093214B2A4620213A
:101AC00020469AF02FFA95E71E4B93F83033DB0748
:101AD0000ED519211C485BF0C7FD48B1D6F810653A
:101AE000192119485BF0F2FD8642D0DD174BE3E780
:101AF000174BE1E7322303AA1649D7F8F8008DF017
:101B0000C9FF0028D1D011B0F0BD0120FBE700BF14
:101B1000B0700030D8CD1108EBCD1108B0A0003066
:101B200023CE110813CE11083DCE11080CAC0030A5
:101B3000CCCE1108D0CE110852CE110897CE110884
:101B400072CE1108B0800030D8440030B6CE1108F3
:101B5000A7CE1108E2CE110870B58EB00E46002156
:101B60002E22054602A80191F6F0D0F9322201A9F1
:101B7000094879F0B7FC044640B99DF9043043B9EF
:101B8000064B074A314628469AF0DEFB20460EB047
:101B900070BD01ABF5E700BFA4800030E8CE1108AE
:101BA0001515140807B5044894F01CFB00F001005B
:101BB00003B05DF804FB00BF8CA100302DE9F043B9
:101BC000DFF87891044699B00D46D9F8CC06036841
:101BD0001B699847804619F049FD002107462E22CF
:101BE0000CA80B91F6F092F932230BAA4146384625
:101BF00018F09EFF064648B90BAB434A29462046DB
:101C00009AF0A2FB304619B0BDE8F0833F4877F068
:101C100071FDB8F1000F0BD0A9F5A04015F0C2FB83
:101C200080B93B4A2946204600269AF08DFBE9E719
:101C300010F0060FE6D0A9F5A04015F0B3FB08B9E7
:101C4000344AEFE703A9384618F0CAFB28B19DF8DB
:101C50000D305B0601D5304AE4E7DFF8E48000236D
:101C6000D8ED007AF5EEC07AF1EE10FA35DD0DF11F
:101C700020090893099305AA0A9307AB04A93846DB
:101C8000019306ABCDF8009019F086F9484637F07D
:101C900081FBD8ED007AB4EEE70AF1EE10FA01DB31
:101CA0001E4ABFE79DED057AF4EEC77AF1EE10FA11
:101CB00001D81B4AB6E79DED047AF4EEC77AF1EE3F
:101CC00010FA01D8174AADE79DED067AF4EEC77A0F
:101CD000F1EE10FA01D8144AA4E707F51971134878
:101CE00005F0F0FF074608B1114A9BE711490F487C
:101CF00005F0E8FF002885D00F4A294620463E46D9
:101D00009AF022FB7EE700BF00CF1108105F003081
:101D100009CF110820CF110846CF110854CF110860
:101D200069CF11087FCF110895CF1108B03000306E
:101D3000A9CF11087CA10030C6CF1108B0800030B7
:101D40000476003008B5064B93F8E5369B0704D5BA
:101D5000044A9AF0F9FA002008BD0120FCE700BF10
:101D6000B0800030E8CF110870B50E468EB020214B
:101D700005469AF0CFF818B9012420460EB070BD80
:101D80009BF0CEFD04460028F6D000212E2202A8AA
:101D90000191F6F0BBF82046322201A99BF082FDAA
:101DA00004460028E8D101AB024A314628469AF0A1
:101DB000CBFAE2E71515140870B50C4C05460E4633
:101DC000D4F8CC0603685B69984710B1012420461B
:101DD00070BDA4F5A04015F0F7FA04460028F5D12F
:101DE000034A314628469AF0AFFAF0E7B080003057
:101DF000F8CF11082DE9304E444D82468EB08B4607
:101E0000D5F8F03693F8D90080BB6FF0C1FB2021E4
:101E100070F0D2FC68BB012495F8C23603F01403BD
:101E2000142B05D100243A4A594650469AF08CFAB0
:101E3000594650469BF0C2FA00212E22884202A841
:101E4000019108BF0C46F6F061F8D5F8F00601AA3A
:101E5000322103681B6898470546F8B92C4601AB48
:101E60002C4A594650469AF06FFA20460EB0BDE80B
:101E7000308E6FF08DFB1F2170F09EFC30B1264A32
:101E80005946504600249AF05FFAC5E76FF080FB90
:101E9000A52170F091FC0028F1D1BCE7002CE4D022
:101EA000DAF808303BB9DAF80030594650461B6B77
:101EB00098470446D9E759465046FFF777FD8146D3
:101EC00059465046FFF748FE09EA00005946C4B299
:101ED0005046FFF737FF594604405046FFF744FF8E
:101EE000594604405046FFF723FD594604405046EA
:101EF000FFF762FF5946044050469AF021FB5946CD
:101F0000044050469BF072FA0440AEE7B0800030C7
:101F100026D011083ED011080CD0110808B5FFF7E3
:101F200069FF054A92F8C01660F3041182F8C016E2
:101F3000024A907108BD00BFB08000303DB2003051
:101F4000F7B505460F469AF021F8044678B102210C
:101F5000284699F0DFFF064648B1144894F042F94C
:101F6000C205C0F30723C0F3002403D5344620463E
:101F700003B0F0BD9B07F9D50C4894F041F90C4B28
:101F8000D3ED287AF8EEE77A30EE670ADFED097ACA
:101F9000B0EEC00AB4EEE70AF1EE10FAE6DD064B49
:101FA0003A460221284699F0BDFFE0E78CA10030B7
:101FB000B0A000300000C8424CD01108F8B504466B
:101FC0000F469AF0F3FB10210546204699F0A2FF38
:101FD00058B12046FFF7E6FD064630B93546044BBA
:101FE0003A461021204699F09DFF2846F8BD00BFD3
:101FF00060D0110870B505460E4699F025FF0446DD
:1020000078B18021284699F085FF50B1074B93F8AD
:10201000453C43B10024064B32468021284699F0C6
:1020200081FF204670BD0446FBE700BFB080003052
:1020300074D0110838B50E4C0546D4F8040192F05E
:102040007DFA012811D0D4F8040192F077FA022821
:1020500004D02846BDE8384099F0F8BE04F65C305C
:1020600011F07EF80128F4D138BD0020FCE700BF54
:10207000B0A00030F0B5114C85B006460F46D4F83C
:1020800064326A460093D4F868320193D4F86C3213
:102090000293D4F8703203939BF042F90546394617
:1020A00030469AF07FF894F8C036284060F3C303B6
:1020B000C3F3C00084F8C03605B0F0BDB080003076
:1020C0002DE9F843DFF8AC90064626480F4677F036
:1020D00011FB0446D9F8CC06DFF89C8003681B6925
:1020E0009847054630B914F0060F03D1D9F80037E8
:1020F000022B09D13946304699F06EFF054618B9D2
:10210000002488F807400AE039463046FFF756FDBC
:1021100004460028F4D02DB9012388F80730204662
:10212000BDE8F8830821304699F0F4FE0028F3D08A
:102130000D4823F0F5FF0028EED00C4BB02193F8AA
:10214000E02301FB023203F58043B2F8EE21B3F93C
:1021500026359A42E0DD064B3A460821304699F092
:10216000E1FECDE7105F0030C0310030B03000300C
:1021700088D01108B08000303DB200302DE9F34125
:102180000F46054619F072FA804618F0CFF804465B
:1021900040B95E4A012128469AF0D6F8204602B09E
:1021A000BDE8F081404618F0A5FF48B923F084FD52
:1021B00090F8B21223F05EFB044608B9544AE9E7EE
:1021C000544E3946D6F8CC0603689B6998470446B6
:1021D00058B9D6F8CC0603689B6B98474E4A03461D
:1021E000012128469AF0B0F8D8E7AB68002BD5D08B
:1021F0001021284699F08EFE20B3D8ED917A98ED03
:10220000900A20EE270AF2F001FFDFED447AA6F5EE
:10221000805320EE270ADFED427AB3F9F83420EE3E
:10222000270A07EE903AF8EEE77AB4EEE70AF1EE05
:1022300010FA07DD3B4B01221021284699F072FE6F
:102240000024ABE74021284699F064FE002833D0F3
:10225000012F1CD0232F1AD0042F18D0D6F86C329F
:102260003148B3F9083000EE103AB8EEC00A00F079
:10227000CBFBB5EEC00AF1EE10FA2BDD2B4B0122A1
:102280004021284600932A4B99F04CFED8E7D6F817
:10229000CC0603681B68984704280DD0D6F8CC06F6
:1022A00003681B689847142806D0D6F8CC06036844
:1022B0001B6898470328D1D11E4B1B68D86A036856
:1022C0001B6A98470128014619D11B4A28469AF0F3
:1022D0003BF8B5E7D6F8CC0603685B69984730B1A0
:1022E000D6F86C32B3F90830002BE5DDC6E7D6F836
:1022F000CC0603681B6898470B28DDD1F0E7394608
:10230000284602B0BDE8F0419AF034BD98D01108DB
:10231000A9D01108B0800030BDD01108E02E654270
:102320000000C842D1D01108B0300030CFCD110824
:10233000D9D0110838B00030E5D0110870B5054685
:102340000E46FFF73BFC084B04463146D871284641
:10235000FFF732FD00283146284608BF00249AF0D6
:10236000B3FF204070BD00BF3DB200302DE9F04109
:10237000524F3B78002B40F09F80514C0126D4F8FF
:10238000F0563E7095F8D9501DB13B702846BDE817
:10239000F0819BF0DDF8054630B94A4A3870137871
:1023A00043F001031370F1E764F0A8F8314663F0DD
:1023B00003FAA4F5A04007F02DFC434B1E710B2639
:1023C000013E54F0A3FE54F0F3FD16F0FF06F7D1E2
:1023D0003E4801F0BDFB19F049F9D0F8F821C4F8E6
:1023E000182790F87432DA0754D418F039FC64F0E6
:1023F00085F83C2163F0BEFF04F5DB6300221A6020
:102400000021324801F034FC304814F0CBFF014683
:102410002F4898F05BF92F4B2F4E01211B68D86A8B
:1024200003681B68984796F8F431D4F8F0066FF308
:10243000410386F8F43103685B6A98470121D4F8B8
:10244000F00695F049FA64F059F88046D4F8CC06C5
:1024500003681B689847A6F5A0430146404693F8D9
:10246000742F63F069FBA6F5E04007F0C5FB61F04F
:1024700069F860F0BDFB00233B70A3F049FDB4F8A0
:10248000C236C6F8100123F4087343F02003A4F801
:10249000C2367BE79B07B3D431460C4805F090FC6D
:1024A0000E4893F0ADFEDFED0E7A04F5DB6320EE0F
:1024B000270A83ED000AA3E7002567E7AC30003068
:1024C000B08000305CB200303DB20030B03000303F
:1024D000747E003038B00030B0A000308CA10030E5
:1024E0000AD7233C2DE9FF413A4DD5F8F03693F851
:1024F000D930002B6BD062B1012901D0232908D13A
:1025000095F9C036002B04DB0024204604B0BDE85A
:10251000F0819BF0D9F804460028F5D019F0A6F810
:10252000804623F0C9FB0746404617F091FC00B3F4
:1025300097F91C30022B1CD1002601AA002140462D
:1025400001960296039618F075F920B101AA0021B0
:10255000384622F053FF01AA012140460196029617
:10256000039618F067F920B101AA0121384622F03C
:1025700045FF194BD5F8CC06984224D10BF0A4FFA7
:102580000121164807F048FD0121144807F082FC9C
:102590000021D5F8F00695F09FF9114839F0C4FBF9
:1025A00063F0ACFF002163F007F90E4B00211B68BC
:1025B000D86A03681B68984795F8C2366FF34513CD
:1025C00085F8C236A1E718460BF082FFD8E7012450
:1025D0009BE700BFB0800030A8A70030B0300030CB
:1025E000A8A4003038B000300020704710B5064C69
:1025F000D4F8CC0603685B6A984718B1D4F8F03673
:1026000093F8D90010BD00BFB080003030B52DED7B
:10261000028B89B0B0EE408A0C46FFF7E7FF054613
:10262000002836D0B4EE488A2268636802A89FED7D
:102630001B0AF1EE10FA029203937DBFDFED188AB8
:10264000DFED167A68EE288ADFED168A78BF68EE2D
:10265000A78AD4ED027AF1EE677ACDED047A36F0EE
:102660007BFAB4EE488A002201238DED050ACDEDF8
:10267000060A05A9F1EE10FA9FED0A0AF0EE680AC3
:1026800009488DED071ACDE9002368BF13460EF007
:10269000A1FA284609B0BDEC028B30BD0000C8424B
:1026A000E02E654200000000ACAA0030014877F03F
:1026B000E9B800BF105F003000F5A04008B590F801
:1026C000C036C3F340128A420BD061F3451380F841
:1026D000C03631B163F012FF0F21BDE8084063F04E
:1026E00049BE08BD70B500F5A04605460C46D6F8B3
:1026F00000378B4212D0012911D0022916D059B9C6
:1027000063F0FCFE1B2163F035FE0D4A05F5A94080
:1027100006212C3066F0B0F9C6F8004770BD63F0B2
:10272000EDFE1A2163F026FE064AEFE7012101F0D3
:102730009FFA63F0E3FE1D2163F01CFE024AE5E709
:102740004CD1110861D111085CD1110800F5A042EB
:1027500010B592F8E5360C4603F00101A14209D00C
:1027600064F3000382F8E536DB0704D406F028FEA4
:10277000024B9C7210BD07F00FF8F9E73DB2003034
:1027800000F5A04090F8E53661F3410380F8E536A6
:10279000014B1973704700BF3DB2003010B50446BD
:1027A0006EF0F6FE202170F007F804F5A043003823
:1027B00093F8C22618BF012060F3820283F8C22674
:1027C00010BD000010B5044660F0BCFE436F04F578
:1027D000A04204F5E040D2F8F026D360D0F8F8200B
:1027E0005364D0F80021C2F81433D0F8F80003681D
:1027F000BDE810401B6D1847F8B500F5A04504462C
:102800002DED028BD5F8F03693F8D930002B7BD024
:1028100095F9C036002B77DB00F5E04696F82433B7
:10282000002B71D1D5F8CC0603685B699847002866
:102830006AD1374BD3F8CC0603681B6898470B283E
:1028400062D0D6F800319FED337AD3EDDC7AF0EE2A
:10285000E77AF4EEC77AF1EE10FA55D5D5F8F0061E
:10286000443065F0F7FA0346B7EE001A9E20DFED1C
:102870002A0A93ED000A30F03DFEB5EEC00AF1EEF3
:1028800010FA41DD04F5E1405C3093F0C5FCB0EE98
:10289000C00ADFED227AB4EEE70AF1EE10FA33D582
:1028A00004F50057D6F8F800D7ED467A0368B8EE7D
:1028B000E78AD3F88C309847DFED197A38EE400A72
:1028C000B0EEC00AB4EEE70AF1EE10FA1CD5D7F864
:1028D0001C3140F2E63203F2F313934214D8D5F8D8
:1028E000F0069FED100A96F027FAD5F8F03604F5B9
:1028F000BE509FED0C0AD3ED0C0A1030BDEC028BDC
:10290000BDE8F84081F098B9BDEC028BF8BD00BF7E
:10291000B080003000000034000000000000704271
:102920000000FA430AD7233C00F5A04008B5D0F8D0
:10293000F0060368DB689847F6EE007A20EE270A77
:10294000B5EEC00AF1EE10FA48BF9FED010A08BDCE
:102950000000000038B500F5E0450446B7EE001A67
:102960006F2004F5A044DFED110A2DED028BD5F8A0
:10297000F83093ED2E0A30F0BDFDD4F8F006B0EE3D
:10298000408AD5F80051036805F50775DB6898475C
:1029900038EE400ADFED067A2846BDEC028B20EEC9
:1029A000270ABDE838407EF085BC00BF000000006B
:1029B00000007A4400F5F950D2ED007A91ED006AFA
:1029C000D0ED945AD0ED976A26EEE77A67EEA57AB5
:1029D000A6EE257AE6EE267A81ED007AC2ED007A3F
:1029E0007047000000F58040B0F9943E33B9B0F96B
:1029F00032050028B8BF404280B2704783EAE370D6
:102A0000A0EBE370F8E7000000F5A04330B52DED32
:102A1000028B93F8E51683B0044611F0010105D04E
:102A20009FED2C0A03B0BDEC028B30BD93F8C1368C
:102A300001915B07F4D5DFED288A04F58045DFEDD1
:102A4000250A4C20B0EE681A30F054FD4FF4C872DD
:102A50000199B0EE408AB5F93A0530F0ABFDA5F822
:102A60003A05204614F008F9B5F93A3507EE900A10
:102A7000B8EEE77A07EE903AF8EEE77A77EE676A13
:102A8000B4EEE68AF1EE10FA0DD5204638EE668AED
:102A9000FFF7A8FF07EE900AB8EEE70A20EE088AD3
:102AA00088EE260ABEE777EE877AB4EEE78AF1EE83
:102AB00010FAB5DDB5F9323538EE678A78EEE77A87
:102AC00000EE103AB8EEC00A20EE088A88EE270A17
:102AD000A8E700BF0000000000007A447047000033
:102AE00070470000002070470020704700207047AA
:102AF000002070470020704700207047002070477A
:102B00000020704700207047002070477047000089
:102B100000F5A040D0F8CC0603681B6818470000F9
:102B2000034808603521117008221A60704700BF01
:102B300048D7110800F5E0409FED0A7AD0F80C3133
:102B40000120D3ED0E7AF4EEC77A9FED077AF1EE0D
:102B500010FAB8BFD3ED047A67EE877AC1ED007A38
:102B6000704700BF000000340AD7233C00F5A040A6
:102B7000DFED047AD0F8CC0620EE270A0368DB6D7F
:102B8000184700BF0000C84200F5E04393F8C13683
:102B9000002B14BF1B2003200B1A584258417047CA
:102BA00000F5A04090F8E506C0F3800070470000F3
:102BB00000F5A040D0F8CC0603685B6C1847000015
:102BC00000F5A040D0F8CC0603681B6C1847000045
:102BD00000F5A04300F5E740D3F8CC363C301B1A93
:102BE000584258417047000000F5A04010B5D0F899
:102BF000CC060C4603685B6D984707EE900A9FED84
:102C0000057A0120F8EE677A67EE877AC4ED007ADC
:102C100010BD00BF0AD7233C00F5A04010B5D0F886
:102C2000CC060C4603681B6D984707EE900A9FED93
:102C3000057A0120F8EEE77A67EE877AC4ED007A2C
:102C400010BD00BF0AD7233C00F5A04010B5D0F856
:102C5000CC060C4603689B6D9847DFED047A012093
:102C600020EE270A84ED000A10BD00BF0AD7233CDE
:102C70007FF0E6BE71F0DCBB9AF030BE75F0AEBFFF
:102C800075F050BC70F004BF60F0A8BB2EF048B8DF
:102C900062F0F8BE1CF080BD6EF0C4B86BF01CBFD3
:102CA00013F054BC14F0C8B915F068BA06F0DEBBD6
:102CB00006F034B906F05AB813F0D4BD1BF0A0B931
:102CC00073F082B976F0E4BB11F0BAB8FFF794BDA7
:102CD00013F078BD98F018B914F024B803F0FABED8
:102CE00013F0FABC13F078BC6EF086BB55F0FEBE54
:102CF00025F044BA03F0BABA14F0F6B807F0D4BA23
:102D000005F080B807F004BC06F0C2B807F07AB846
:102D100013F0ACBBFFF756BD2EF0E8BC00F5E04069
:102D200008B5D0F80C0191F08DF8012008BD000025
:102D300010B400F5E74400F5A0403C34D0F8CC06D0
:102D4000A04203D15DF8044B09F0B6B900205DF84C
:102D5000044B704700F5E74300F5A0403C33D0F842
:102D6000CC06984201D109F0C5B9704706F090BD74
:102D70000AF01CBF0BF0D4B80BF068B800F5A04304
:102D800010B504462DED028BD3F8CC06B0EE408A88
:102D900003685B6A984720B900242046BDEC028B8B
:102DA00010BD04F5F3409FED070A7C3028EE000AC1
:102DB0000DF02CFA04460028EED001210248FFF75E
:102DC0007BFCEAE70000C842B03000301FB500F5D8
:102DD000A04304460391D3F8CC0603685B6A984786
:102DE00060B10023DFED060A04F5F3400399B0EE6D
:102DF000600A1A467C3000930DF0E2FF04B010BD6B
:102E00000000000030B50C4600F5A04105462DED50
:102E1000028BD1F8CC0689B0B0EE408A0168F0EEA2
:102E2000608A0392496A0293884728B39FED140A87
:102E300005F5F3409DF83C1094ED006A68EE800AB9
:102E4000D4ED016A7C3094ED027A26EE006A66EEDB
:102E5000806A019127EE407A9DF8381028EE000A2A
:102E6000029B009105A9039A8DED056ACDED066AD6
:102E70008DED077A0DF0C2FE09B0BDEC028B30BDBE
:102E80000000C84200F5A04370B50646D3F8CC0652
:102E90008EB00D46036814465B6A9847D8B3DFEDE1
:102EA0001F7A002395ED006A06F5F340D5ED016A1F
:102EB00008AA95ED027A26EE276A66EEA76ADFED8C
:102EC000180A27EE677A00938DED056AB0EE600A66
:102ED00094ED006A05A9CDED066A7C30D4ED016A57
:102EE00026EE276A8DED077A94ED027A66EEA76AE0
:102EF0008DED086A67EE677ACDED0B0ACDED096AB4
:102F0000CDED0C0ACDED0A7ACDED0D0ACDE90133F8
:102F10000BAB0EF055F80EB070BD00BF0000C842FC
:102F200000000000F0B51C4600F5A04307460E4621
:102F300015462DED028BD3F8CC068FB0B0EE408A4B
:102F40000368F0EE608A5B6A984700284CD09FEDDA
:102F5000280A07F5F34096ED006A08AAD6ED016A43
:102F600068EE800A96ED027A26EE006A66EE806AC6
:102F70009DF8603027EE407A05A98DED056A7C301A
:102F800095ED006ACDED066A8DED077A26EE006AB2
:102F9000D5ED016A95ED027A66EE806A8DED086ADC
:102FA00027EE407A94ED006A0293CDED096A26EE91
:102FB000006A9DF85C30D4ED016A8DED0A7A94EDDB
:102FC000027A66EE806A019327EE407A9DF85830C7
:102FD00028EE000A8DED0B6A00930BABCDED0C6A69
:102FE0008DED0D7A0DF0ECFF0FB0BDEC028BF0BD56
:102FF0000000C84200F5A04370B50646D3F8CC06E1
:1030000086B00C4603685B6A9847054610B39FED8F
:10301000136A0023D4ED006A012294ED017A06F5CB
:10302000F340D4ED027A66EE866A27EE067ADFED8B
:103030000C0A67EEC67A03A9B0EE600A7C30CDEDCB
:10304000036A8DED047ACDED057ACDE900321A469A
:103050000DF0C0FD284606B070BD00BF0000C8429C
:1030600000000000F0B5144600F5A04207460D46EA
:103070002DED028BD2F8CC068DB0B0EE408A0268FE
:10308000F0EE608A0593526A90470646C8B39FEDFA
:103090001F0A012295ED006A07F5F340D5ED016A9C
:1030A00068EE800A95ED027A26EE006A66EE806A86
:1030B000029227EE407A9DF854208DED066A06A90B
:1030C00094ED006A7C30CDED076A8DED087A26EE2E
:1030D000006AD4ED016A94ED027A66EE806A01928C
:1030E00027EE407A9DF8502028EE000A059B0092BA
:1030F00009AA8DED096ACDED0A6A8DED0B7A0DF006
:10310000FFFC30460DB0BDEC028BF0BD0000C842A4
:1031100000F5A04370B506462DED048BD3F8CC0620
:1031200088B0F0EE408A0368B0EE609AF0EE419A03
:103130005B6AB0EE618A9847054600B39FED120ABC
:1031400000244FF07E5304A829EE801A079469EEFC
:10315000000A049328EE800A0694059434F060FB7C
:103160009FED0A0A06F5F340002301AA28EE000AA3
:1031700004A97C300194029403940DF06DFB284661
:1031800008B0BDEC048B70BD35FA8E3C0000C8421F
:103190000A4A0B4692F9C026002A05DA00228A6004
:1031A0004A600A600120704700F5E040D0F8F8203E
:1031B000543207CA83E80700F4E700BFB08000304C
:1031C0002DE9F843054608301EF078FC4FF07E5399
:1031D000002405F5B860C5F8983005F2E443C5F859
:1031E000A4400026C5F8A0404FF08048C5F89C4098
:1031F000C5F8B040C5F8B440C5F8B840C5F8A0411E
:10320000C5F8A441C5F8A841C5F8AC41C5F8B0411E
:10321000C5F8B441C5F80442C5F80842C5F80C42E7
:10322000C5F81C42C5F82042C5F82442C5F828421A
:10323000C5F82C42C5F83042C5F83442C5F83842CA
:10324000C5F83C42C5F84042C5F84442C5F848427A
:10325000C5F84C42C5F85042C5F85442C5F858422A
:10326000C5F85C42C5F86042C5F86842C5F86C42D2
:10327000C5F87042C5F87442C5F87842C5F87C427A
:10328000C5F88042C5F88442C5F88842C5F88C422A
:10329000C5F89042C5F89442C5F89842C5F89C42DA
:1032A000C5F8A042C5F8A442C5F8A842C5F8AC428A
:1032B000C5F8B042C5F8B442C5F8B842C5F80C43E9
:1032C000C5F81043C5F81443C5F81843C5F81C43A6
:1032D000C5F82043C5F83043C5F83443C5F8384332
:1032E000C5F83C43C5F84043C5F84443C5F85043CE
:1032F000C5F85443C5F85843C5F85C43C5F8604366
:10330000C5F864431C605C609C6005F2F443A94FFF
:103310001C605C609C6005F5A063A74A1C605C6053
:103320009C6005F20C53A5491C605C609C6005F52F
:10333000A363DFF8F4921C605C609C6005F5A763F2
:103340001C605C609C609E4BC5F8C47503619D4B1E
:10335000C2610022436103629B4BC0E90A2385F8E6
:10336000F86558F0D1FC05F5C060984BC5F80876B3
:1033700085F81866C361964B96498362C0F82C9015
:10338000C0F83880C46358F0BFFC934B05F5C860A3
:103390009249C5F84436012385F85036904BC0F861
:1033A0001890C3618F4BC0F82080436258F0ACFC8A
:1033B0008D4905F5CF60C5F87C7685F8986658F09C
:1033C000A3FC05F5D460A2F0AFFD884905F2A46026
:1033D00058F09AFC05F5DC630020002143E9020166
:1033E000C3E90001C3E90201814905F5D56058F040
:1033F0008BFC05F5DE60A4F09DF805F29C70A3F04F
:103400002DFD05F66410A3F01DFB05F69410A2F047
:1034100091FD05F5985305F5A25105F58052043349
:103420001431C2F8D442C2F8D842C2F8DC42C2F821
:10343000E842C2F8EC42C2F8F042DC60703343F874
:10344000604C43F85C4C43F8584C43F8544C43F8F8
:10345000504C43F84C4C43F8484C43F8444C43F828
:10346000404C43F83C4C43F8384C43F8344C43F858
:10347000304C43F82C4C43F8284C43F8244C43F888
:10348000204C43F81C4C43F8184C43F8144C43F8B8
:10349000104C43F80C4C43F8084C9942CDD105F53B
:1034A000A353544928461C605C609C6002F26C4344
:1034B0001C605C609C6002F58F631C605C609C60BB
:1034C00002F284431C605C609C6002F592631C60A5
:1034D0005C609C6002F29C431C605C609C6002F239
:1034E000B4431C605C609C6005F5A6531C605C6086
:1034F0009C6002F2CC431C605C609C6002F59B63A4
:103500001C605C609C6002F2E4431C605C609C6038
:1035100002F59E6302F2FC421C605C609C601460D9
:103520005460946058F0F0FB3349284658F0ECFBA7
:103530003249284658F0E8FB3149284658F0E4FB68
:103540003049284658F0E0FB2F49284658F0DCFB6C
:103550002E4905F57D7058F0D7FB2C4905F21C402B
:1035600058F0D2FB294905F2444058F0CDFB2849D8
:1035700005F26C4058F0C8FB254905F5916058F0FC
:10358000C3FB244B244AC5F87C32C5F88832234B50
:103590002349C5F87822C5F884221A68C5F8741240
:1035A000C5F8801212B11F48A2F086FC28461D60A3
:1035B000BDE8F88340420F0000006145C0C5130814
:1035C0000AD7233C0000A0410000D03F0000F0419A
:1035D00000000C4224C21308A0860100C4C11308D5
:1035E0000000C8430000964308C4130800C613082F
:1035F00054C413089CD51308DCD71308DCDA13086D
:10360000ACCE13082CD31308FCD01308CCD4130869
:1036100034C61308000090C100005041D0CB0030E8
:103620000000A04070D11108000080BF38B5564B93
:103630000446002540F8043B71F01AF804F110002C
:103640001BF07EFD04F160005FF066FC04F58870FD
:1036500022F0B4FC04F591601AF008F804F22C6032
:1036600021F008FC04F50E602DF04AF804F59A509C
:10367000183070F0ABFD04F5A150083059F01AFF76
:1036800004F5B650183070F053FC04F5B8501430FF
:103690001DF052FB04F5BE50103081F047F904F5DF
:1036A000F35089F0F9F804F5F3501C305FF0E4FFB3
:1036B00004F5F55072F084F904F5805304F5F650E2
:1036C000324A83F8C45E04F5F653143004331360B1
:1036D00053F09CFA04F5F9502946083016F062F8C8
:1036E00004F51A50203083F045F904F51E503830A7
:1036F00085F022F904F52050383088F087FA04F577
:1037000022501C3088F0B2FE04F5235024307EF0A5
:103710000BF804F526500C3014F0EAFE04F52B509B
:1037200034308AF031F904F539501949083058F02D
:10373000EBFA04F53950203075F044FF04F53C50A5
:103740001C3089F0BBFF04F5005304F53D5083F8AD
:10375000745F38300F4DFFF733FD04F58940283092
:103760008AF046F804F589404C3063F085FE2B68FA
:1037700013B10948A2F0A0FB2046084958F0C4FA4A
:1037800020462C6038BD00BF54ED120894BC0030B8
:103790007061130834B3003088D111084CEC120862
:1037A00010B513F0E3F96DF0F3FE0368BDE81040C7
:1037B0005B681847FFF7F4BF10B5044606F082FBBC
:1037C000204613F019FE204604F0F0F82046BDE82C
:1037D000104004F055BA0000FFF7EEBF70B500F5D9
:1037E000AE4504461C3528461BF094FB22F064FAD3
:1037F00090F9193093B390F8B0327BB304F5A0433D
:1038000004F22C66D3F8F006443064F023FB034640
:10381000B7EE001A9E20DFED120A93ED000A2FF09A
:1038200069FE94F9583628460021012B04F2F474FD
:1038300008BF86ED0C0A1BF03DF9DFED0A7A94ED26
:10384000287A304620EE270ADFED077AA7EE270A0E
:1038500084ED280ABDE8704022F02EB870BD00BF8C
:1038600000000000CDCCCC3D6666663FFFF7B6BFDA
:1038700010B50121044613F0FBFD60B1114BD3F8E4
:10388000CC0603689B6A984728B9204602F0CCFB17
:10389000204602F001FC4FF40011204613F0E8FD31
:1038A00018B12FF0C1F92CF03DFE4FF480212046D5
:1038B00013F0DEFD28B12FF0B7F9BDE810402CF071
:1038C00035BD10BDB0800030FFF7D2BF38B5022142
:1038D000044613F0CDFD70B10121204613F0C8FD60
:1038E00048B9514BD3F8CC0603689B6A984710B986
:1038F000204602F099FB0121204613F0B9FD48B99A
:10390000494BD3F8CC0603689B6A984710B9204608
:1039100002F0C2FB0121204613F0AAFD10B9204697
:1039200002F014FC4FF40031204613F0A1FD30B139
:1039300004F5A043D3F8F00603681B6C98474021B8
:10394000204613F095FD68B104F5A445743528466A
:1039500061F0CEF804F5805393F9D83613B12846B8
:1039600061F08AFA4FF48061204613F081FD20B1A6
:1039700004F5A440743061F055F92021204613F07D
:1039800077FD68B104F5A045D5F8CC0603681B693E
:10399000984758B304F5E043D3F800018DF098FF41
:1039A0008021204613F064FD68B32FF03DF92CF020
:1039B000E1FC1021204613F05BFD50B104F5E0431B
:1039C000D3F8F8008AF094FE04F58C402C3097F080
:1039D0000DFB4FF6FF71204613F04AFD10B304F5BE
:1039E0009C40BDE83840783099F086BF20460EF004
:1039F0000BF90028CED1D5F8CC0603685B6998474F
:103A00000028C7D0CCE74FF48021204613F030FDCA
:103A10000028CAD14FF40021204613F029FD0028C8
:103A2000C3D1C6E738BD00BFB0800030FFF74EBF3E
:103A300010B50121044613F01BFD10B1204602F021
:103A400085FB8021204613F013FD48B14FF48021FF
:103A5000204613F00DFD18B92FF0E6F82CF066FCA7
:103A60004FF40011204613F003FD30B104F5BE50B1
:103A7000BDE81040103080F077B910BDFFF7D8BF17
:103A800010B5044605F0D2FF204605F023FE20467F
:103A900006F010F8204606F029F9204614F072FBD3
:103AA0002046BDE8104003F05FBF0000FFF7E8BF0D
:103AB00070B504464FF6FF7113F0DAFC04F5A0452B
:103AC00028B1D5F8C0260721204602F071FBD5F8B1
:103AD000F03693F8D9308BB92046FEF75FFED5F863
:103AE000F00604F58043026893F8F416D66993F85B
:103AF0004E25B047D5F8F00695F0ECF86FF06EF96A
:103B0000204614F03DFB95F8C03604F5E0440E4A1B
:103B1000DB43D4F8F850C3F3C01353712B685E6EC7
:103B20005FF010FD5FF08AF92846B047D4F80041F5
:103B30005FF008FD04F507745FF080F92046BDE8EA
:103B400070407DF08BB900BF3DB20030FFF7B0BFD1
:103B50002DE9F04100F5F95300F5A04500F50056B8
:103B60000446D3F8502205F20478083305F5E167DE
:103B7000C8F80020D3F854323B60D6F8200100F595
:103B80008C4050302FF084FC05F5E263C5F80C073B
:103B900005F21475D8F800204FF6FF7120461A6020
:103BA0003B682B6013F064FC38B1D6F82021204626
:103BB0000921BDE8F04102F0D1BABDE8F081000072
:103BC00000F5A04310B5D3F8001700294FD093F8A3
:103BD000C126D4074BD56FF30002012900F5F95037
:103BE00083F8C126D3E99924B2F9081007EE101A18
:103BF000B4F9081006EE901A0CBF03F2047103F535
:103C0000E261B8EEC77A07BFD1ED007A03F5E16152
:103C1000D1ED007A03F214710CBFF8EEE66AF8EE0B
:103C2000E66AD1ED005A25EEE66AA7EE276A67EE4E
:103C3000A67AD0ED946AE7EE257A90ED977A27EE92
:103C4000877AA6EE267ABDEEC77A17EE101A118192
:103C500090ED947AD3F8683267EE877A90ED977A90
:103C6000E6EE477AFDEEE77A17EE902A1A8110BD4C
:103C700038B5054600F5A0442DED028B71B12846FC
:103C800012F0C4FDD4F80C3740F2E6321B1A03F2EE
:103C9000F31393420CD8BDEC028B38BDD4F8003737
:103CA000022BF8D112F092FDB0F57A7FE7D2F2E75D
:103CB000C4F80C0700F58C406423503090FBF3F3FC
:103CC00000EE103A9FED0C7BB8EEC00B20EE070B18
:103CD000B7EEC08BB0EE480AF0F0CAF804F5E26324
:103CE00004F2147483ED000AB0EE480AF0F0FAFF13
:103CF00084ED000ACFE700BF000000A046DF913F3F
:103D000000F5F9500121083017F044BCFFF7F8BF67
:103D100010B5044612F0B6FF1021204613F0A8FBA0
:103D200098B1204602F0D8F84FF40011204613F065
:103D30009FFB50B92EF078FF2CF0F4FB04F5BE5039
:103D4000BDE81040103080F00FB810BDFFF7E0BFA5
:103D500070B5044606F0F2FA204B4FF6FF76254682
:103D600004F17C0045F83C3B1D4B6465C4E9163406
:103D70001C4BC4E918341C4BA3661DF09FFE04F1D4
:103D800098001DF09BFE04F1B4001DF097FE174B48
:103D900004F1D000A4F8CC60C4F8C8301DF08EFE49
:103DA000134B144928461D6057F0AEFF04F52470EC
:103DB000A4F87460A4F890601DF080FE04F52B70E8
:103DC0001DF07CFE04F532701DF078FE00232046C5
:103DD00084F8DC32C4F8003370BD00BF043212082E
:103DE000712D0208752D0208792D02080000FFFFD1
:103DF0000CB2003030B0120810B5044606F09EFA3E
:103E00000A4B04F1400023600123A3871DF056FEF6
:103E100004F150001DF052FE04F160001DF04EFE52
:103E200004F170001DF04AFE204610BD503C1208FF
:103E30002DE9F04304462DED028B85B004F5A04535
:103E4000FFF7F4FB854B04F58A4004F5A746236091
:103E500002AF7030703602F081FB04F58A4104F540
:103E6000A44004F5AA484831743008F1340861F0E0
:103E7000E7FB04F58A4304F5A6403C333C30C5F823
:103E80002833062385F82C3363F038FF04F5A64069
:103E9000643063F033FF04F5A74010306FF024FC6A
:103EA000304697F0DDFF6E4B3946301DC5F8F033D4
:103EB000012304F5A9468DF8083058F0E3FE04F517
:103EC000A8405036503054F0A1FD04F5A940103000
:103ED00089F06EFD634BC5F89034634BC5F8AC3484
:103EE0003046143668F01AFFB045F9D11E2340F26F
:103EF000CC60C5F858360023A5F85C361EF064FA8D
:103F0000C5F8540604F5AC406030A1F045FC04F55A
:103F1000AD402430A1F040FC544A13681BB904F5AD
:103F2000A9432C33136004F5F748514B04F5AD4019
:103F3000B7EE008A08F16808C5F8AC3451300026A5
:103F4000C5F8CC8695F044FE05F2047304F5AE4046
:103F500005F5E26583ED008A4FF40071454B1C3096
:103F600085ED008A04F5E0450393434B02940093EA
:103F700097E80C001AF07CFB04F5B84000274830A5
:103F80009AF00EFF04F5E140B0EE480A243063F0E9
:103F9000C7FF04F5E140B0EE480A3C3063F0B6FEDE
:103FA00004F5E1404C301DF089FD04F5F95304F5AA
:103FB000E2404FF40041083385F815711830C5F818
:103FC000DC60C5F8F430C5F8E060C5F8E460C5F819
:103FD000E860C5F8EC60C5F8F0601BF095F904F5F1
:103FE000E340183077F03CFD04F5E340503058F0E2
:103FF0006FFF224B04F5E340C5F8D031643075F013
:10400000E9F91F4B04F5E4401E49186057F07CFEA7
:1040100004F5E44020308EF043FF04F5E640043020
:104020008EF0FCFD184B04F5E642DFF870C0143248
:10403000C3F800C03B46142798B2013307FB00C108
:10404000097C0029F8D1114B1880114B1880114BB5
:104050001F683FB31048A1F02FFF00BF7CDB1108A1
:10406000FCD0110838D11108500D1308E8B6003003
:1040700044DC11086D2D02086CDB110848D11108D1
:104080009CBC003008211308F4B20030F0B20030BC
:10409000C8B20030A0B200309CD11108F41F120841
:1040A000CDCC4C3D04F5E6401FED030A1A6004F543
:1040B000ED49283063F02AFE04F5E64009F178095D
:1040C000403006F03BF95F4B04F5E740C5F840335C
:1040D00006F034F95C4B04F5E740C5F880333C301A
:1040E000FFF736FE484606F029F9584B09F13C0027
:1040F000C5F8F8369FF05EFB554B04F5F140C5F866
:104100003437203006F01AF9524B04F5F140C5F867
:10411000A038643006F012F94F4B04F5F24085F8F0
:104120002079C5F8E438243006F008F94B4B04F543
:10413000F240C5F82439603006F000F9484B04F528
:10414000F340C5F8603905F69C1334301E605E609C
:104150009E6006F0F3F8434B04F5F340C5F8F079A0
:10416000C5F8B4397C3006F0E9F83F4B04F5F4406B
:10417000C5F8387AC5F8FC39403006F0DFF83B4B1B
:1041800004F5F540C5F8403A083006F0D7F8384B4A
:1041900004F5F540C5F8883A483006F0CFF8354BBD
:1041A00004F5F640C5F8C83A05F534635C301E6086
:1041B0005E60FFF721FE404606F0C0F82E4B04F586
:1041C000F840C5F8E83B24300FF07AFF04F5F940D9
:1041D000483006F0B3F8294B04F5FA40A5F8047D01
:1041E000C5F8C83C183006F0A9F8254B04F5FA408C
:1041F000C5F8547DC5F8183D5C30FFF7FDFD214B37
:1042000004F5FB40C5F85C3D01236C3085F8E53DC5
:1042100005F678750BF0BAF804F5FD40403011F062
:10422000EDF804F5FE40383006F088F8164B2046CD
:1042300045F8403C2E606E6005B0BDEC028BBDE8D9
:10424000F08300BF602E1208002F1208A43212085B
:1042500030331208D4331208703412080C351208A7
:10426000A0351208E03712087C381208AC39120861
:10427000403A1208DC3A1208883D120844411208FC
:1042800020391208E83C12080442120838B5054BE0
:104290000A4601461C68236820461D68024BA84751
:1042A000002038BD38B00030B030003038B5037968
:1042B00004463BB905682DB128462BF0CBF92846BA
:1042C0001EF07EF8204638BD314B70B503600446C1
:1042D00000F5375028301DF079FB04F5005393F8B2
:1042E000902842B9D3F88C582DB128462BF0B2F95A
:1042F00028461EF065F804F5F35004F59E5588F045
:10430000DFFA04F5CF5004F59B561C350430FFF757
:10431000CDFF04F5CE501C361C30FFF7C7FF04F567
:10432000CE501430FFF7C2FF04F5B65018306FF0CE
:1043300017FEB54204D0183D28462AF0B9FEF8E72A
:10434000144B04F6D85504F55966C4F8E038B54264
:1043500004D0083D2846FFF7A9FFF8E704F67C20C3
:1043600063F054FA04F6582063F050FA04F634204F
:1043700063F04CFA04F5196063F048FA04F66C1027
:1043800063F044FA04F6481063F040FA204670BD2A
:1043900054ED12089CA01208094B0A4A10B503609C
:1043A00000F5A0430446D3F85406C3F8AC2408B182
:1043B0001EF00CF82046FFF787FF204610BD00BF17
:1043C0007CDB1108500D130810B5A1F063FC064CFE
:1043D000064B18602046FFF72BFD2046044A05498E
:1043E000BDE81040EFF03EBDB030003038B00030D6
:1043F000CCCB0030994302080120704790F88830F8
:104400008B4286BF00EB8100D0F88C000020704703
:1044100090F888308B4286BF00EB8100D0F88C008A
:1044200000207047FA207047014B93F8FE04704754
:10443000B0700030034BD3F80007431E5842584178
:10444000704700BFB0800030034BD3F80007831ED5
:1044500058425841704700BFB0800030034BD3F83A
:10446000F00608B193F012BB01487047B0800030ED
:1044700030DC110870B581690446C26941F4E0532B
:10448000474D836142F4E053C361036A43F4E05053
:10449000206295F8C106400710D541F48E3142F4F0
:1044A0008E32A161E26195F8C126510706D595F8D3
:1044B000E526D2075CBF43F48E332362A36943F43D
:1044C000C043A361D5F8CC0603681B68984702383F
:1044D000192816D8DFE800F05B0D0D0D0D0D150D38
:1044E0001515155B155B0D0D0D0D5B0D5B1515158C
:1044F000150DD4E9072342F4C04243F4C043E261FE
:104500002362284B1E6846B11921304659F0ACF899
:1045100018B1A36943F48073A36195F83033DB07C6
:104520000DD5E36943F48073E36146B11921304648
:1045300059F0E8F818B1236A43F4807323621A4BE8
:1045400093F920228AB1D4E9061242F0800241F0A8
:104550008001E261A16193F9202232B193F8F8322F
:104560001BB1236A43F080032362A36943F08043B5
:10457000A361E36943F08043E361D5F8F03693F833
:10458000C5301BB9236A43F08043236270BDE369E1
:1045900043F40053E361236A43F40053B0E700BFE0
:1045A000B080003000B30030B0A0003013B54FF43D
:1045B0005070CDE900211DF0FDFE044628B1DDE973
:1045C00000216BF01FFA024B2360204602B010BDA1
:1045D00088DE1108002070477047000003207047F4
:1045E0000820704710B5154CD4F8CC0603681B683A
:1045F000984707281CD8032834BF10231823D4F861
:10460000F02643F0400022B192F8D9200AB143F0DD
:10461000C00040F0010010BD0B280DD8DFE800F00D
:1046200006060C060C060C060C0C0C061823E6E716
:104630001038C3B20B2BEFD91023E0E7B080003065
:10464000014B93F800057047B0700030034B93F9AD
:10465000E806003818BF0120704700BFB070003076
:10466000014B93F902057047B070003070470000AD
:1046700038B5C5780B4604463522352D4FF000017C
:10468000184628BF3525F3F041FC04F10C012A46F9
:10469000BDE83840F3F0F0BB00B5002389B00293C9
:1046A0000393049305930693079316F0DFFF02A983
:1046B00016F0F0FDA0B116F0D9FF00F5587005AB6B
:1046C00007C883E80700184634F064FEF1EE047A68
:1046D00020EE270AFCEEC07ACDED017A9DF80400A9
:1046E00009B05DF804FB00001FB5184C94F8E21AFD
:1046F00004F68C1014F036F978B194F8E21A04F646
:104700008C1014F09DFB40B194F8E21A04F68C1062
:1047100004B0BDE8104014F0DBBB0023019302930A
:10472000039316F0A3FF01A916F0B4FD20B101A870
:1047300034F030FE04B010BD23F060FDB02290F8DC
:10474000D03202FB030090ED330AF3E7B0500030A3
:1047500008B50D4BD3F8F006A8B1443063F07AFBEE
:104760000346B7EE001A9E2093ED000ADFED070A1C
:104770002EF0C0FEDFED067A20EE270ABDEEC00A5D
:1047800010EE103A18B208BDB080003000000000F2
:104790000000C8422DE9F04FDFF8D8808DB0044604
:1047A000334F042508F5405617F8019BB8F95835E2
:1047B00009F1FF3A43FA0AF3D90742D5207C65F0A4
:1047C0007DF98346207C66F0A1F800F121039B452A
:1047D00005D2207C0DB0BDE8F04F64F04BBBBAF1C0
:1047E000030F2ED8DFE80AF00234393ED6F8F8007D
:1047F00003689B68984700F1A4035A69D3F800A0A6
:10480000D3F804E0D8681969D3F818C008925A6A36
:104810001B6ACDF825206222CDF82930212306908D
:104820000791C221207CCDF80CA0CDF810E0CDF886
:1048300014C08DF82490CDE90032192303AA65F045
:10484000BBF9013D15F0FF05AED10DB0BDE8F08F0D
:10485000D6F8F8000368DB68CCE7D6F8F800036800
:104860001B69C7E7D6F8003103F53073C5E700BF11
:1048700078DF1108B070003007B5019099F050F85A
:1048800028B1019903B05DF804EB99F005B803B0C5
:104890005DF804FB13B504460748019108F0F4FFE6
:1048A00030B90199204602B0BDE8104066F07CBAEC
:1048B000042002B010BD00BF6CA40030014808F015
:1048C000B5BD00BF6CA4003037B504460D460648A0
:1048D0001146019299F07EFD019A2946204603B0C7
:1048E000BDE8304069F0E8BF507F003010B588B0B7
:1048F000044667F0A5FB0C4BD3F8F00638B90B4A19
:104900000621204608B0BDE8104067F081BB69462B
:104910001E2293F0C3F86B46054A0621204667F035
:1049200077FB08B010BD00BFB08000307CDC110800
:1049300015151408034A92F86032013382F8603288
:1049400066F0E6BCB080003001488EF0D9BC00BFF4
:10495000D0A2003007B5084601911DF083F938B1A7
:104960000448019902F044FE002003B05DF804FB06
:104970000420FAE73CB00030014803F021BA00BF40
:10498000B0300030014803F0C9B900BFB03000308A
:10499000162A10B40C4605D0542A03D05DF8044BF7
:1049A00066F01EBA0323012023705DF8044B7047A4
:1049B00008B566F063FC40F41C6040F00D0008BDD3
:1049C00010B504461DF0FCFC204610BD10B50C4C83
:1049D00094F9C036002B0FDBD4F8CC0603685B6C6F
:1049E000984758B9D4F8CC0603681B6C9847002840
:1049F0000CBF0220032010BD0120FCE70420FAE7D1
:104A0000B080003008B5134B93F8C10610F02000B9
:104A10001ED0D3F8CC0603685B6D984707EE900A6A
:104A2000F2EE046AB8EE677ADFED0B7A27EE277AAA
:104A3000DFED0A7AB4EEE77AF1EE10FA58BFB0EE85
:104A4000677AC7EE267AFCEEE77A17EE903A98B2CC
:104A500008BD00BFB08000300AD7233C00FF7F476D
:104A600010B44C69012C05D101465DF8044B034894
:104A700003F0DAB95DF8044B66F064BCB030003086
:104A80002DE9F341B1F9043006460C461546002BDA
:104A900035DB1C4F4FF000089FED1B0A4FF47A7373
:104AA000CDE90028B1F90220D7F864126AF0C6F9FE
:104AB00001239FED150A3046B4F90020D7F868129B
:104AC000CDE900534FF47A736AF0B8F99FED0F0AFD
:104AD0004346B4F90420D7F86C123046CDE90058AB
:104AE0006AF0ACF99FED080A4FF47A73B4F9062026
:104AF000D7F870123046CDE900586AF09FF902B03D
:104B0000BDE8F081B08000300000FA4400007A4433
:104B100008B5094B93F8C10610F020000AD0D3F86D
:104B2000CC0603681B6D98472EF0B2FCC82390FB9F
:104B3000F3F0C0B208BD00BFB08000307FB50023E5
:104B400003930493059316F091FD03A916F0A2FBBD
:104B5000D8B116F08BFDD0EDD80A90EDD90AF1EE60
:104B6000600AB1EE400AF0F0B9FADFED097A20EE02
:104B7000270A2EF0DFFBF6EE007A20EE270AFCEE85
:104B8000C07ACDED017A9DF8040007B05DF804FB12
:104B9000E02E6542044B187820B9044B93F8C20606
:104BA000C0F38010704700BFC4B10030B080003047
:104BB000124B07B593F8C10610F020001AD003F588
:104BC0000053D3F8000100F55D7034F0E3FBDFED36
:104BD0000C7A20EE270ADFED0B7AB4EEE70AF1EE4D
:104BE00010FA58BFB0EE670AFCEEC07ACDED017A3C
:104BF0009DF8040003B05DF804FB00BFB0800030F6
:104C0000CDCC4C3D00007F43084B93F8452C52B966
:104C100093F8E526920606D193F9C036002BACBF77
:104C20000420032070470520704700BFB08000308B
:104C300008B5074B93F94C35032B03D0BDE808406A
:104C400067F05EBA034A022167F0E2F9042008BD6A
:104C5000B070003094DC1108084BD3F8EC269207B2
:104C600001D466F0B1B803F54053DFED057A93ED5A
:104C7000340AB8EEC00A20EE270A7047B070003040
:104C80000AD7233C10B594B0044603A81CF016FFC5
:104C90001C4B03A9D3F8CC060368DB6C984778B3A8
:104CA000002103A81CF0A2FF50B3247CA1F030F92E
:104CB000059B9622DDED047A57210893069BF8EEBA
:104CC000E77A9FED117A0993002367EE877A0790C0
:104CD0000B9320460C930D930E930F931093119307
:104CE00012934FF6F853CDED0A7AADF84C3000230D
:104CF0008DF84E303323CDE9003207AA64F05CFF13
:104D000014B010BDB08000300AD7233C30B5844CBD
:104D100005462DED0A8BD4F8CC0699B003685B6A82
:104D20009847002867D004F50054D4F8383A062B89
:104D300000F2E180DFE803F004040463A0C35F0035
:104D4000784840F6F8540CF043FA9FED778A9FEDCF
:104D5000770AF0EE489AB0EE48AAF0EE488AF0EEF4
:104D600048AAB0EE48BA90ED027B90ED005BF7EEFA
:104D7000C76BB7EEC55B90ED047B0BA88DED0B5AAE
:104D8000CDED0C6AB7EEC77B8DED0D7A33F0E4FE06
:104D9000B0EE40CAF0EE60BAB0EE419A2D7CA1F0C0
:104DA000B7F800238C22B1EE499A0B901593F1EEDF
:104DB000688A16930123B1EE488A55218DF85E303A
:104DC000332328468DED0CCACDED0DBA8DED0E9A2C
:104DD0008DED0FBACDED10AACDED118A8DED12AA91
:104DE000CDED139A8DED148AADF85C40CDE900321B
:104DF0000BAA64F0E1FE19B0BDEC0A8B30BD494846
:104E00004FF440640CF0E4F99FED480A90ED027B0A
:104E100090ED005BF7EEC76BB7EEC55B90ED047BE2
:104E20000BA88DED0B5ACDED0C6AB7EEC77B8DED5F
:104E30000D7A33F091FE3B48F0EE60BAB0EE419A45
:104E4000B0EE40CA0CF0C8F99FED380A33F084FE8A
:104E50003448B0EE40BAF0EE60AAF0EE418A0CF0B1
:104E6000BFF99FED320A33F077FEF0EE609AB0EEB4
:104E700040AAB0EE418A91E72A4840F607440CF078
:104E8000ABF99FED2A0A33F067FE2648B0EE40BA30
:104E90009FED259AF0EE60AAF0EE418A0CF0A0F9A1
:104EA0009FED220AF0EE49BA33F056FEB0EE49CA41
:104EB000B0EE40AAF0EE609AB0EE418A6EE7194873
:104EC00040F63F44DFED188A0CF08AF99FED170A8F
:104ED00033F042FEF0EE68AAB0EE40AAF0EE609A1F
:104EE000B0EE418AB0EE68BAB0EE689AF0EE68BAF9
:104EF000B0EE68CA52E79FED0C8A0024F0EE489AA3
:104F0000B0EE48AAF0EE488AF0EE48AAB0EE48BAF1
:104F1000B0EE489AF0EE48BAB0EE48CA3EE700BF9D
:104F2000B0800030ACAA0030000000000AD7233C5B
:104F30002DE9F041414D04462DED088B95F8C13621
:104F40008CB0990675D505F50057DFED3D8A9FEDCC
:104F50003D0AD7F8F800483033F0FEFD8DED041A15
:104F600021EE281AD5F8CC66CDED030A20EEA8AACA
:104F70008DED020A3046BDEEC11A94F8108060EE45
:104F800028AA11EE103A1DB233681B6D984707EE40
:104F9000900A3046F8EEE77A67EEA87AFDEEE77AF7
:104FA00017EE903A1CB233685B6D984707EE900A93
:104FB000D7F80031B8EE678ADFED237A986828EEDB
:104FC000288A93EDD89BB4EEE78AF1EE10FA58BF29
:104FD000B0EE678A91F014F93368B0EE40BA30460B
:104FE0009B6D9847B7EECBBABCEEC88A0023B722B8
:104FF00020EE280A39EE4B9B089318EE103A3E211A
:105000004046CDED05AAB7EEC99BADF82C301A236A
:105010008DED06AA8DED090A29EE289AADF82850E3
:10502000ADF82A40CDE9003205AA8DED079A64F06B
:10503000C3FD0CB0BDEC088BBDE8F081B080003042
:105040000AD7233C9F0CB34500FF7F471B4B2DE93C
:10505000F04F2DED028BD3F8F8308DB0047CD3F8EF
:1050600060805F6E9E6EDD6E93ED1C8AD3F874B027
:10507000D3F878A0D3F8B890A0F04AFF0023162206
:10508000029053218DF82C30252320468DED078A80
:10509000CDF820B0CDF824A0CDF82890CDF80C8024
:1050A000049705960695CDE9003202AA64F084FDC6
:1050B0000DB0BDEC028BBDE8F08F00BFB0A000309A
:1050C00010B52DED048B84B016F0D0FA0446684676
:1050D0001CF0F4FC6946204616F020F8134B93F8B8
:1050E000C10610F020001DD003F50053DDED017A5C
:1050F000D3F80031B8EEE79A986893EDD88B91F029
:105100007FF8B7EEC00ADFED0A7A38EE408BB7EED3
:10511000C88B38EE098A28EE278ABDEEC88A18EEB9
:10512000103A18B204B0BDEC048B10BDB080003052
:105130000AD7233C054BD3F8F0362BB193F8CE00B9
:10514000002808BF0220704702207047B08000305E
:1051500008B5034BD3F8CC0603681B68984708BD15
:10516000B0800030024B93F8C106C0F34010704786
:10517000B080003070B52C4E05460C46D6F8CC06F3
:105180002DED028B036886B091ED018A5B6A98472A
:1051900050B9BDEEC88A18EE103ADB0704D40220DD
:1051A00006B0BDEC028B70BDD4E904012FF06EFC9B
:1051B0000028F4D002A81CF081FC02AA214628464F
:1051C00069F04EFD0028EAD0184902A81CF056FDEF
:1051D00003460028E3D1DFED160A0246009002A93B
:1051E000B0EE600A13480BF0EBFDD8B1D6F8CC0650
:1051F00003685B6A9847044608B10020D0E70222A2
:1052000004210D4805F0B8FC60B1DFED090A234622
:10521000224602A9B0EE600A064800940BF0D0FDC9
:105220000028EAD10420BBE7B08000307CA1003028
:1052300000000000ACAA0030B030003008B591F892
:105240002030032B1CD1D1ED027A9FED0E7AF0EEC7
:10525000E77A91ED060A0C4BF4EEC77ADFED0B7A94
:10526000D3F8CC0620EE270AF1EE10FA4CBF01214C
:10527000002112F039FC002814BF0020042008BDD2
:105280000220FCE700000034B08000300000C8427B
:1052900010B52DED028BD1ED007A82B00C46F5EE03
:1052A000C07AF1EE10FA04DA042002B0BDEC028BF1
:1052B00010BD9FED197AF4EEC77AF1EE10FAF3D82B
:1052C00091ED030A9FED158AF0EEC07AF4EEC87AEC
:1052D000F1EE10FA19D5D4ED037A1148F4EEC87A3C
:1052E000D4ED027AD4ED010AFDEEE77A94ED000ADE
:1052F000F1EE10FACDED017AACBF012200229DF94A
:10530000041002F0E5F80020CFE7F7EE000A2DF0D8
:105310005BFF0028C8D0DEE70000B4430000003483
:105320003CB0003091ED010AB5EEC00A08B5F1EECF
:1053300010FA01DC042008BD9FED107AD1ED007A4F
:1053400020EE070A9FED0E7A0E4BF4EEC77AD3F8E3
:10535000CC06F1EE10FA036805DD5B6E9847002875
:10536000E8D00020E7E79FED087AF4EEC77AF1EE87
:1053700010FACCBF1B6EDB6DF0E700BF0000C84227
:105380009A993940B08000303333F33F08B5022298
:1053900003210A4805F0F0FB70B108480121FDF730
:1053A0008BF9074890F8FC33012B03D000F57E7091
:1053B00037F03AFB002000E0042008BDB030003098
:1053C000B0A0003010B5D1ED007AFCEEE77A17EE10
:1053D000903A9CB2012C02D0022C06D04CB9214646
:1053E000054871F037F8002010BD044803F0F0FACA
:1053F000F9E70420F8E700BFB0A20030B030003079
:105400001FB5D1ED017A0B7CFCEEE77ACDED027A87
:10541000D1ED007A0093FCEEE77AD1ED030A91ED2D
:10542000020A01469DF80830CDED037A9DF80C2064
:10543000024810F081FF05B05DF804FBB030003089
:1054400013B513480C4698F07FF9F0B1D4ED017A0A
:10545000FCEEE77ACDED017A9DF80400012807D033
:1054600002280CD088B90B4B83F8860E02B010BD11
:1054700094ED020A064898F079F90020F6E794EDD9
:10548000030A034898F0B2F9F7E70420EEE700BFFB
:10549000287F0030B070003010B50A4C94F8E53623
:1054A000DB070CD402220521A4F5A04005F064FB23
:1054B00028B90222A4F5A040114605F05DFB0020AA
:1054C00010BD00BFB080003010B5D1ED007A0446A9
:1054D000FCEEE77A17EE903A13F0FF030FD10F4B73
:1054E000D3F8CC0603681B6F984708B1002010BDA5
:1054F0000B4A2046062166F08BFD0420F7E7012BBE
:1055000009D1064BD3F8CC0603685B6F9847002897
:10551000ECD1044AEDE70220E9E700BFB08000309B
:10552000B8DC1108C8DC110801F10C039FED0A7A00
:10553000F1EC017AF4EE677AF1EE10FA0AD6F0EEA9
:10554000E77AF4EEC77AF1EE10FA03DC9942EFD174
:10555000012070470020704700007A4430B50023D6
:1055600005462DED028B8DB003930493059316F041
:105570007DF803A915F08EFE58B316F077F800F504
:10558000587306AC2D7C93E8070084E80700DDED36
:10559000060A9DED070AF1EE600AB1EE400AEFF04F
:1055A0009DFD2046B0EE408A33F0F4FE089B0122B8
:1055B000DFED0A7AA8210B930C2328EE278A2846D0
:1055C0008DED0A0ACDE9003209AA8DED098A64F051
:1055D000F3FA0DB0BDEC028B30BD00BFE02E65428A
:1055E0002729F7B506460D4611D00AD819290ED03D
:1055F00024290ED02946304603B0BDE8F04069F0BA
:10560000BFBE3D2910D0A1F13F03012BF2D80124E8
:1056100007E00C2163F040FC044610B13046FFF770
:105620009DFF204603B0F0BD0D4B1F68002FEED04C
:10563000262163F031FC04460028F2D000230DF14E
:10564000060229463046ADF8063067F0E7FE00282E
:10565000E7D0BDF806203846317C78F057FFE0E708
:1056600030BD003038B5184C0D4694F8E536DB07F0
:105670000AD4D4F8F03693F8D9303BB9012204F5B6
:105680007C701146FCF772FE002038BD94F9C036DC
:105690000222002B12DA0521A4F5A04005F06CFAD5
:1056A0000028F1D095ED000A0121DFED087AD4F849
:1056B000CC0620EE270A12F017FAE5E70921A4F537
:1056C000A04005F059FADFE7B08000300000C84282
:1056D00010B5214C94F8E536DB070ED4D4F8F0363B
:1056E00093F8D9304BB194F9C036002B07DA012278
:1056F000082104F57C70FCF7F5FE002010BDD1ED0B
:10570000007A9FED167AF0EEE77AF4EEC77AF1EEC2
:1057100010FA0BD502221121114805F02DFAA0B97B
:1057200002220F48114605F027FAE6E7D4F8CC0626
:1057300003681B6898470428DFD0D4F8CC060368B8
:105740001B6898471428E5D1D7E740F6C4110548EF
:1057500008F0EAFFD1E700BFB0800030000000345D
:10576000B030003050A9003073B58B8B05460C4625
:10577000C02B75D02CD8542B00F0818014D8162B58
:1057800009D8102B09D9113B052B06D8DFE803F007
:105790008D0505979A77202B49D02146284602B0DF
:1057A000BDE870406BF02AB8B22B3BD009D8552B1E
:1057B00000F08880732BF0D102B0BDE87040FFF795
:1057C00067BDBD2BE9D10221414806F017FC71E00D
:1057D0004AF21146B3425ED013D8D12B4AD008D832
:1057E000C12B42D0D02BD8D102B0BDE87040FFF71A
:1057F000E9BDB3F5967FD0D102B0BDE87040FFF7A8
:10580000C5BD4AF21346B34240D04AF26866B3427D
:1058100046D04AF21246B342BFD102B0BDE8704052
:10582000FFF720BF02B0BDE87040FFF77BBDD1EDB0
:10583000007AF5EEC07AF1EE10FA46DD9FED257A9A
:10584000F4EEC77AF1EE10FA3FD8FCEEE77A224A7E
:10585000CDED017A9DF80430A2F8A23E00202CE0A4
:1058600002B0BDE87040FFF785BC02B0BDE87040F3
:10587000FFF72ABE02B0BDE87040FFF7C1BD214668
:10588000284602B0BDE87040FFF7D8BC02B0BDE8C2
:105890007040FFF71DBF02B0BDE87040FFF7FCBDD0
:1058A00002B0BDE87040FFF7CBBD022205210B48D6
:1058B00005F062F90028D1D1042002B070BD0222A7
:1058C0000621F4E702220921F1E70220F5E700BFF3
:1058D0006CA4003000007F43B0700030B030003066
:1058E000F6EE007A08B591ED007AB4EEE77AF1EEC3
:1058F00010FA06DD012205210348FCF7F3FD002024
:1059000008BD0420FCE700BFA08400302DE9F0476B
:105910002DED028B8A7AA2B04B7A05460C4643EAFB
:105920000223CA7A43EA0243562B00F0C8810DD8FD
:10593000522B17D0542B00F0A0802146284622B0CD
:10594000BDEC028BBDE8F0476AF0E2BC03F1807366
:10595000863B23F07F43012BEFD822B0BDEC028BB6
:10596000BDE8F087CD782722002114A8272D28BF75
:105970002725F2F0CBFA04F10C0114A82A46F2F024
:105980007BFAB64BD3F8CC0603685B6A98470028CD
:10599000E3D09DF876506F06DFD400244FF07E539D
:1059A0002E06109313941294119428D510A832F057
:1059B00077F9AB480AF048FF9DED1C0A064600281F
:1059C0002BD0B7EE001A40F2DB40FFEE000A2DF0BC
:1059D00091FD0C940CAA0D940E94EC075CBF199BDE
:1059E0000C93A8079E485CBF1A9B0D93690710A9EA
:1059F0005CBF1B9B0E9333460AF02EFFADE7159B51
:105A000010A81093169B1193179B1293189B139336
:105A100032F04CF90028A0D0CBE7DFED920AB7EEC8
:105A2000001A40F2DE402DF065FDF6EE000AB0EE01
:105A3000408A2DF0C9FBE8B9B6EE000A8A4BD3F8CC
:105A40000431B4EEC08AF1EE10FA08DD38EE400AF7
:105A500030EE008A93ED070A28EE000AB9E730EE2F
:105A6000480AD3ED087AF0EEE77A30EE000A27EE26
:105A7000C00AAEE79FED7B0AABE7204614A9FEF70C
:105A8000F7FD764BD3F8CC0603685B6A984700288D
:105A90003FF463AF9DF88430012B07D0DA1F022A50
:105AA00004D901216E480AF06DFE56E7BDF880402A
:105AB000A20504F4E07602D5002E3FF44EAF4FF07D
:105AC000000914F00707CDF82490CDF82890CDF800
:105AD0002C9027D19FED656A083B9DED167ADDED90
